:100000000C944A080C9472080C9472080C947208B0
:100010000C9472080C94F8100C9472080C947208EA
:100020000C9472080C9472080C9472080C94720868
:100030000C9472080C94D1100C9472080C947208F1
:100040000C9487100C9472080C9455100C942F107B
:100050000C9472080C9472080C9472080C94720838
:100060000C9472080C94720800407A10F35A00A0A5
:10007000724E18090010A5D4E80000E87648170071
:1000800000E40B54020000CA9A3B000000E1F505B1
:10009000000080969800000040420F000000A086FB
:1000A00001000000102700000000E803000000002D
:1000B0006400000000000A000000000001000000D1
:1000C00000002C76D888DC674F0823DFC1DFAE59EB
:1000D000E1B1B796E5E3E453C63AE651997696E87E
:1000E000E6C28426EB898C9B62ED407C6FFCEFBC02
:1000F0009C9F40F2BAA56FA5F490055A2AF75C932D
:100100006B6CF9676DC11BFCE0E40D47FEF520E662
:10011000B500D0ED902E0300943577050080841E45
:10012000080000204E0A000000C80C333333330FA0
:10013000986E12831141EF8D2114893BE65516CF3D
:10014000FEE6DB18D1844B381BF77C1D901DA4BB49
:10015000E424203284725E228100C9F124ECA1E5FE
:100160003D2700000000240027002A0000000000B6
:10017000250028002B000000000023002600290095
:10018000040404040404040402020202020203033D
:100190000303030301020408102040800102040845
:1001A000102001020408102021B00414200C0000CB
:1001B000000000000000000000000000000000003F
:1001C000000000000000000000000000000000002F
:1001D000000000000000000000000000000000001F
:1001E000000000000000000000000000000000000F
:1001F00000000000000000000000000000000000FF
:1002000000000000000000000000000000081818B6
:1002100018F8F8F8F8F8F81818080000081818F88E
:10022000F8F8F8F8F818181818183838F8F8F8F036
:10023000F0E080000000000000000080C0E0F0F06E
:10024000F8783838181C1C18181818383878F0F056
:10025000000000000000000000000000000000009E
:100260000000000000FFFFFFFFFFFF000000000094
:10027000000000FFFFFFFFFFFF800000000080C0C4
:10028000F9FFFFFF7F3F1F0000000000E0FCFFFFC1
:10029000FFFFFF0701000000000000000000000059
:1002A0000000070700000000000000000000000040
:1002B000000000000000000000FFFFFFFFFFFF0044
:1002C00000000000000000FFFFFFFFFFFF0303032B
:1002D00003030307070F7EFEFEFCFCF8E0000000AE
:1002E0007FFFFFFFFFFFFF00000000000000000095
:1002F00000000000000000000000000000000000FE
:100300000000000000FCFCC080808080E0FFFFFF58
:100310007F3F0F0000000000808080FFFFFFFFFF95
:10032000FFC08080808080C0C0E0FEFFFF7F7F3FF5
:100330000F00000000030F1F3F7FFFFEF8E0C0C06A
:100340008080808080808080C0E0FFFF000000000F
:10035000000000000000000000010103030303038C
:100360000101010000000000000000000101010186
:10037000010101010101010101010101010101006E
:10038000000000000000000000000000000000006D
:100390000101010103030303030101010101000045
:1003A000000000000000000000080002010000033F
:1003B00004070000000000000000F018303A0F8031
:1003C000FF01F0FF0FF8FF1FFCFF3FFEFF7F07005C
:1003D000E00100800100800100800300C0FEFF7F7B
:1003E000FCFF3FF8FF1FF0FF0F80FF010000000C33
:1003F0001000801800800800801C00C0FCFFFFFE79
:10040000FFFFFEFFFFFFFFFFFFFFFF0000C0000038
:1004100080000080000000000000000000000000DC
:10042000100000807000C01C00E01C00F00E00F8FE
:100430000F00FE0F00FF0F80FB1FE0F93FF8F8FFF1
:100440003FF8FE1FF8FE0FF8FC07F8F001FC000073
:100450000E100000300800780C00F80400F00200D4
:10046000F00204E0030CC0030EC0071EC08F3F4023
:10047000FFFE70FFFE7F7EFC3F7EFC1F38F80F0002
:10048000F0031000C00700A00700900700880700D5
:100490008607008107808007608007108007F8FFCB
:1004A000FFFCFFFFFFFFFFFFFFFFFFFFFF008007D5
:1004B0000080070F000C30800F78F00FF89E0FF8C7
:1004C0009F0FF09F0FE09F1FC01F1FC01F1F801FA7
:1004D0003F801F7E801F7C401FFC610FF83F01E0C2
:1004E0000F0000001000F80300FF0F80FF3FE0FF47
:1004F0003FF0FF7FF807F87804C03C04801C0480BC
:100500000E0C80063CC002FC7F03F87F03F83F011D
:10051000F01F01C0070FC000007E00003F00001F59
:1005200000001F00001F00801F00F01F007E1FC082
:100530000F1FF8011F3E00DF0700FF01003F000012
:100540000700000000000FF0001FFCC33FFEC77F44
:10055000FEEF7FFF7FE0C33FC0813F80013F80010E
:100560007E8001FEC107FF7FFEFB7FFEF33FFCE1C3
:100570001F78800F00000010E00380F80F80FC1F40
:10058000C0FE1FC0FE3F40033C60013070012038B8
:1005900001203C03201E1EE01FFEFF0FFCFF07F89A
:1005A000FF03F0FF00C01F0000000000000000007B
:1005B000000000000000000000000000000000003B
:1005C000000000000000000000000000000000002B
:1005D000000000000000000000F908209104000065
:1005E0000000000000025F5F000000000006070737
:1005F000000007070007147F7F147F7F1406242E56
:100600006B6B3A1200066373180C67630007327F46
:100610004D4D7772500406090906000000041C3E87
:1006200063410000000441633E1C00000007082AEB
:100630003E1C3E2A080608083E3E0808000380E0EB
:100640006000000000060808080808080002606052
:10065000000000000007406030180C0602063E7FD4
:1006600049457F3E000640447F7F4040000662735C
:1006700059494F460006226349497F360007181C36
:1006800016137F7F1006276745457D3900063E7F9C
:1006900049497B3200060101797D07030006367F58
:1006A00049497F360006266F49497F3E00022424CF
:1006B00000000000000380C4440000000006103069
:1006C0007F7F30100005007E43437E000006040655
:1006D0007F7F06040006020351590F0600063E7F85
:1006E000414D6F2E00067C7E13137E7C00067F7FBB
:1006F00049497F3600063E7F4141632200067F7FE5
:1007000041417F3E00067F7F4949414100067F7F8E
:100710000909010100063E7F41497B3A00067F7FBF
:1007200008087F7F0004417F7F41000000062060B1
:10073000417F3F0100067F7F1C36634100067F7FBB
:100740004040404000077F7F060C067F7F067F7F8A
:100750000C187F7F00063E7F41417F3E00067F7F71
:1007600009090F0600061E3F21617F5E00067F7F9C
:1007700019396F460006266F49497B320006010190
:100780007F7F010100063F7F40407F3F00061F3F03
:1007900060603F1F00077F7F3018307F7F06416316
:1007A0003E3E63410006070F78780F07000661712F
:1007B000594D474300047F7F414100000007020676
:1007C0000C183060400441417F7F00000006080C97
:1007D000FEFE0C08000780808080808080071C3E21
:1007E000634163141406207454547C7800067F7FA0
:1007F00044447C380005387C444444000006387C7E
:1008000044447F7F0006387C54545C180005087E01
:100810007F090900000698BCA4A4FC7C00067F7F29
:1008200004047C780004447D7D4000000005808045
:1008300080FD7D0000067F7F10386C440004417FFE
:100840007F4000000007787C0C380C7C78067C7CAC
:1008500004047C780006387C44447C380006FCFCA8
:1008600024243C180006183C2424FCFC00067C7C54
:1008700004040C080006485C545474240005043F2A
:100880007F44440000063C7C40407C7C00061C3CCD
:1008900060603C1C00071C7C6038607C1C06446C5B
:1008A00038386C4400069CBCA0E07C3C00064464E4
:1008B000745C4C440005083E7F4141000002FFFF8C
:1008C00000000000000541417F3E080000051018AF
:1008D0001818080000027E7E0000000000077C7EE1
:1008E00013137EFC80063C7E4643662400077F7F10
:1008F000494941C180067F7F4844404000067E7ED2
:100900000C197E7E00063C7E46437E3C0006246E2B
:100910004A4E7B30000662765A4F4642000669799D
:10092000594D4F4B0007207454547CF88005387C97
:10093000444645000006387C5454DC980004517F3E
:100940007F44000000067C7C04067D780006387C2D
:1009500044467D380006485C5456752400064464BD
:10096000765D4C4400064464755D4C4400F71020ED
:100970007F050000000000000000000000000000F3
:1009800000000000053E00FF33FF33FF333E000050
:10099000000000000000000707000700070000003B
:1009A00007000700070000000000092001FE1FFEED
:1009B0001FFE1F2001FE1FFE1FFE1F20010938061B
:1009C0003C0E6C0CFF3FFF3FFF3F8C0B1C0F1807CA
:1009D000091E30333C331FDE07F0017C1E1F330736
:1009E00033011E091E1FBF3FF331E120F331BF3F2A
:1009F0001E1F803B8031030B000F0007000000002A
:100A000000000000000000000005F807FE3FFF7F27
:100A100007780140000000000000000005014007C9
:100A200078FF7FFE3FF8070000000000000000098B
:100A30008000A002E003E003C001E003E003A002A5
:100A4000800009800080008000E003E003E0038074
:100A500000800080000300B000F000700000000083
:100A6000000000000000000009800080008000807D
:100A70000080008000800080008000030030003093
:100A8000003000000000000000000000000009002D
:100A900030003C003FC00FF003FC003F000F00039C
:100AA0000009FC0FFE1FFF3F8337E1217B30FF3F32
:100AB000FE1FFC0F09042004200620FF3FFF3FFF1C
:100AC0003F002000200020090C380E3C0F3E032779
:100AD0008123C321FF207E203C20090C0C0E1C4FDB
:100AE0003C433041204330FF3FFE1FBC0F09000F45
:100AF000E00FFC0FFF081F08833F803F000800083D
:100B0000093F0C3F1C3F3C213021206130E13FC1B7
:100B10001F810F09E00FF81FFC3F5E304720C330F4
:100B2000C13F801F000F09010001000100013C814D
:100B30003FF13FFF037F000F00091C0FBE1FFF3F67
:100B4000E3304120E330FF3FBE1F1C0F093C007E15
:100B500000FF20C3308138831EFF0FFE07FC010316
:100B600060306030603000000000000000000000D5
:100B700000000360B060F060700000000000000042
:100B80000000000000088000C001E0037007380E7C
:100B90001C1C0C1804100000092001200120012059
:100BA00001200120012001200120010804100C185F
:100BB0001C1C380E7007E003C0018000000009060D
:100BC00000070007000333C133F333FF003F001E6B
:100BD0000009FC0FFE1FFF3FE331F123F123132334
:100BE000FF33FE3309FC3FFE3FFF3F0301010103DA
:100BF00001FF3FFE3FFC3F09FF3FFF3FFF3F41201A
:100C00004120E330FF3FBE1F1C0F09FC0FFE1FFFFA
:100C10003F0330012003300F3C0E1C0C0C09FF3F3A
:100C2000FF3FFF3F012001200738FF3FFE1FF8076D
:100C300009FF3FFF3FFF3F4120412041204120412C
:100C400020012009FF3FFF3FFF3F8100810081001D
:100C500081008100010009FC0FFE1FFF3F0330816E
:100C60002083308F3F8E1F8C0F09FF3FFF3FFF3FD8
:100C7000400040004000FF3FFF3FFF3F09012001CF
:100C8000200120FF3FFF3FFF3F01200120012009FD
:100C9000000C001C003C003000200030FF3FFF1F14
:100CA000FF0F09FF3FFF3FFF3FE001F8073C0F1F29
:100CB0003E0F3C033009FF3FFF3FFF3F0020002075
:100CC000002000200020002009FF3FFF3FFF3FF8E9
:100CD00000C003F800FF3FFF3FFF3F09FF3FFF3F1A
:100CE000FF3F7C00F001C007FF3FFF3FFF3F09FCD3
:100CF0000FFE1FFF3F033001200330FF3FFE1FFCAC
:100D00000F09FF3FFF3FFF3F81008100C300FF004D
:100D10007E003C0009FC0FFE1FFF3F033001600313
:100D2000F0FFFFFE9FFC0F09FF3FFF3FFF3F8100E9
:100D30008101C31FFF3F7E3E3C20093C0C7E1C7F8F
:100D40003CE330E121C3318F3F8E1F0C0F090100BE
:100D500001000100FF3FFF3FFF3F010001000100D4
:100D600009FF0FFF1FFF3F003000200030FF3FFF53
:100D70001FFF0F093F00FF01FF0FC03F003CC03FB6
:100D8000FF0FFF013F0009FF01FF3FFF3F003FC092
:100D900001003FFF3FFF3FFF01090F3C3F3FFF3F87
:100DA000F003C000F003FF3F3F3F0F3C093F00FF4F
:100DB00000FF01C03F803FC03FFF01FF003F00092F
:100DC0000138013E813FC127E12179203F201F20CA
:100DD000072005FF3FFF3FFF3F01200120000000EB
:100DE00000000000000903000F003F00FC00F003BA
:100DF000C00F003F003C00300501200120FF3FFFF5
:100E00003FFF3F0000000000000000090400040054
:100E100006000700030007000600060004000900A2
:100E200080008000800080008000800080008000C2
:100E3000800606000F00090009000F0006000000F0
:100E40000000000009001E403F603F2021202120BB
:100E500031E03FE03FC03F09FF3FFF3FFF3F6030D1
:100E600020206030E03FC01F800F09800FC01FE0CE
:100E70003F60302020202060306030401009800F1B
:100E8000C01FE03F603020206030FF3FFF3FFF3F4A
:100E900009800FC01FE03F603220226022E033C093
:100EA0003380130920002000FE3FFF3FFF3F210059
:100EB000230023000200098047C04FE0DF60D820F4
:100EC0009060D8E0FFE07FE03F09FF3FFF3FFF3F3A
:100ED000600020006000E03FC03F803F07202020EE
:100EE00020E33FE33FE33F00200020000000000636
:100EF000004020C020C0E3FFE3FFE37F00000000CC
:100F0000000009FF3FFF3FFF3F0007800FC01DE0CB
:100F100038603020200701200120FF3FFF3FFF3FC6
:100F2000002000200000000009E03FE03FE03FE03B
:100F300000C01FE000E03FE03FC03F09E03FE03F6E
:100F4000E03F600020006000E03FC03F803F09803C
:100F50000FC01FE03F603020206030E03FC01F80A6
:100F60000F09E0FFE0FFE0FF603020206030E03F4D
:100F7000C01F800F09800FC01FE03F20202020608D
:100F800030E0FFE0FFE0FF09E03FE03FE03FC0006E
:100F90006000600060006000400009C010E031E0C7
:100FA00031202320272026603C603C401807200089
:100FB0002000FE1FFE3FFE3F2020202000000000FA
:100FC00009E01FE03FE03F002000200030E03FE06C
:100FD0003FE03F09E003E007E01F003C0030003C39
:100FE000E01FE007E00309E007E03FE03F003EC00C
:100FF00007003EE03FE03FE007096030E03DE03DB4
:10100000800F0007800FE03DE03D603009E083E0A5
:101010008FE0DF00FC0070003CE01FE00FE0030900
:1010200020302038203C202E2027A023E021E02063
:101030006020068000FE3FFF7F7F7F01400140006F
:10104000000000000003FFFFFFFFFFFF00000000A3
:10105000000000000000000006014001407F7FFF0B
:101060007FFE3F8000000000000000090200020037
:10107000030001000300020003000100010009E079
:101080003FF83FFC3F1F3007301F30FC3FF83FE088
:101090003F008A1111241FBECFEFD8E0DEBFCDBFC5
:1010A00012E0A0E0B1E0ECEBFFE302C005900D928E
:1010B000AE30B107D9F723E0AEE0B2E001C01D9237
:1010C000A736B207E1F718E0CAE4D8E004C02197D8
:1010D000FE010E94D11FC934D107C9F70E944712EF
:1010E0000C94DC1F0C9400004F925F926F927F92E1
:1010F0008F929F92AF92BF92CF92DF92EF92FF9228
:101100000F931F93CF93DF9300D000D0CDB7DEB7FE
:101110004B015C0129013A01E982FA820B831C83AD
:10112000D0920703C092060381E0CA94CD2809F04B
:1011300080E0809327038092EC029092ED02A092CF
:10114000EE02B092EF024092F0025092F1026092F1
:10115000F2027092F30289819A81AB81BC81809303
:10116000F4029093F502A093F602B093F702609117
:101170001A0370911B0380911C0390911D030E9420
:10118000851E20E030E04AE754E40E94DD1D6B013B
:101190007C018092F8029092F902A092FA02B09239
:1011A000FB02AC019B01C301B2010E943C1F2B0159
:1011B0003C014092FC025092FD026092FE0270924D
:1011C000FF02A701960169817A818B819C810E942F
:1011D000DD1D6B017C01C0920003D0920103E092FF
:1011E0000203F09203038091040390910503019799
:1011F00069F5A501940160E070E0CB010E946B1DD0
:101200006093F8027093F9028093FA029093FB02C4
:10121000A301920160E070E0CB010E946B1D60931E
:10122000FC027093FD028093FE029093FF02A701DF
:10123000960160E070E0CB010E946B1D609300039B
:101240007093010380930203909303030F900F9018
:101250000F900F90DF91CF911F910F91FF90EF9022
:10126000DF90CF90BF90AF909F908F907F906F90C6
:101270005F904F9008950F931F93CF93DF93E0916A
:101280005A03F0915B03309709F452C090915F03C9
:10129000891708F44DC020916003281708F448C04E
:1012A000162F20915C0330915E03239F900111243F
:1012B0002F5F3F4F482F491B550BBA01269FA001B6
:1012C000279F500D369F500D11244C5F5F4FE40F48
:1012D000F51F0491C02FD0E0E0915803F09159031D
:1012E00009958823E9F0809162030817E0F490E003
:1012F0008C1B9D0B9C0197FF02C02F5F3F4F3595C4
:101300002795821B930B0196C20FD31F8C0F9D1F35
:10131000111101C00197DF91CF911F910F91089595
:1013200080916103E2CF81E090E030E020E0ECCFFB
:1013300090E080E0F0CF9C01A3E5B3E018969C9389
:101340008E931797FC018491819519968C93199728
:10135000319694911A969C931A973196E4911C9623
:10136000EC931C97F9013396E4911D96EC931D972D
:10137000E92FF0E0379683E0F595E7958A95E1F758
:101380001B96EC931B971E961C921E971F961C9201
:101390001F9750961C92509752961C9252978FEF1F
:1013A00053968C930895982F482F4053550B81E006
:1013B0004A30510520F0903211F080E008950895F0
:1013C000AF92BF92CF92DF92EF92FF920F931F9353
:1013D000CF93DF936C017B018B01040F151FEB0191
:1013E0005E01AE18BF08C017D10759F06991D60148
:1013F000ED91FC910190F081E02DC6010995892BBA
:1014000079F7C501DF91CF911F910F91FF90EF9078
:10141000DF90CF90BF90AF900895FC01538D448D25
:10142000252F30E0842F90E0821B930B541710F08F
:10143000CF96089501970895FC01918D828D98179C
:1014400061F0A28DAE0FBF2FB11D5D968C91928D74
:101450009F5F9F73928F90E008958FEF9FEF0895A5
:10146000FC01918D828D981731F0828DE80FF11D6E
:10147000858D90E008958FEF9FEF0895FC01918D89
:10148000228D892F90E0805C9F4F821B91098F7382
:101490009927089583E492E00E943E0A21E0892B77
:1014A00009F420E0822F089580E090E0892B29F054
:1014B0000E944A0A81110C9400000895FC01A48D39
:1014C000A80FB92FB11DA35ABF4F2C91848D90E066
:1014D00001968F739927848FA689B7892C93A08949
:1014E000B1898C91837080648C93938D848D9813D3
:1014F00006C00288F389E02D80818F7D8083089566
:10150000EF92FF920F931F93CF93DF93EC0181E053
:10151000888F9B8D8C8D98131AC0E889F9898081FA
:1015200085FF15C09FB7F894EE89FF896083E8892D
:10153000F98980818370806480839FBF81E090E01F
:10154000DF91CF911F910F91FF90EF900895F62EAC
:101550000B8D10E00F5F1F4F0F731127E02E8C8D46
:101560008E110CC00FB607FCFACFE889F98980818B
:1015700085FFF5CFCE010E945E0AF1CFEB8DEC0F17
:10158000FD2FF11DE35AFF4FF0829FB7F8940B8FA8
:10159000EA89FB8980818062CFCFCF93DF93EC0112
:1015A000888D8823B9F0AA89BB89E889F9898C914B
:1015B00085FD03C0808186FD0DC00FB607FCF7CF07
:1015C0008C9185FFF2CF808185FFEDCFCE010E9407
:1015D0005E0AE9CFDF91CF910895833081F028F43E
:1015E000813099F08230A9F008958730A9F08830D1
:1015F000C9F08430B1F4809180008F7D03C0809168
:1016000080008F7780938000089584B58F7784BDA4
:10161000089584B58F7DFBCF8091B0008F77809344
:10162000B00008958091B0008F7DF9CFCF93DF9304
:10163000282F30E0F901EA55FC4F8491F901EC566E
:10164000FE4FD491F901E058FE4FC491CC23A1F094
:1016500081110E94ED0AEC2FF0E0EE0FFF1FEA5817
:10166000FE4FA591B491EC91ED2381E090E009F457
:1016700080E0DF91CF91089580E090E0FACF1F9352
:10168000CF93DF93282F30E0F901EA55FC4F849186
:10169000F901EC56FE4FD491F901E058FE4FC49188
:1016A000CC23A9F0162F81110E94ED0AEC2FF0E057
:1016B000EE0FFF1FE459FE4FA591B4918FB7F89438
:1016C000EC91111108C0D095DE23DC938FBFDF9120
:1016D000CF911F910895DE2BF8CFCF93DF9390E049
:1016E000FC01EC56FE4F249180589E4FFC018491E2
:1016F0008823C9F090E0880F991FFC01EE59FE4F36
:10170000A591B491FC01E459FE4FC591D4916111AA
:101710000DC09FB7F8948C91209582238C9388817B
:10172000282328839FBFDF91CF910895623051F421
:101730009FB7F8943C91822F809583238C93E88106
:101740002E2BEFCF8FB7F894EC912E2B2C938FBFCD
:10175000EACF3FB7F89480911B0290911C02A091B0
:101760001D02B0911E0226B5A89B05C02F3F19F09F
:101770000196A11DB11D3FBFBA2FA92F982F882711
:10178000BC01CD01620F711D811D911D43E0660FEB
:10179000771F881F991F4A95D1F708958F929F92BE
:1017A000AF92BF92CF92DF92EF92FF924B015C011A
:1017B0000E94A90B6B017C010E94A90B6C197D0989
:1017C0008E099F09683E734081059105A8F321E0C9
:1017D000821A9108A108B10888EEC80E83E0D81ECD
:1017E000E11CF11C81149104A104B10429F7FF90BC
:1017F000EF90DF90CF90BF90AF909F908F90089523
:101800002FB7F89460911702709118028091190215
:1018100090911A022FBF089561E00C943F0B60E095
:101820000C943F0B80913D02882391F0809114022B
:1018300090911502019690931502809314028536BB
:10184000910548F010923D02109215021092140278
:1018500010922D02089580912D028111F9CF81E01F
:1018600080932D0208950F931F930E94000C009106
:101870001002109111022091120230911302601B8C
:10188000710B820B930B613273408105910508F453
:101890004CC08091000120E4829FC00111248093FC
:1018A0007C0080917A00806480937A0080917A0035
:1018B00086FDFCCF8091780020917900322F282F6F
:1018C00080910E0290910F02280F391F36952795AF
:1018D00030930F0220930E0244E6429FC001439FC3
:1018E000900D112466E970E00E94A91F675E7F4F8A
:1018F00090E080E00E94851E6093E8027093E90208
:101900008093EA029093EB0210923E020E94000C38
:10191000609310027093110280931202909313024D
:1019200081E090E01F910F91089590E080E0FACF60
:10193000862F642F0C946D0BFC0181890E94160B7D
:1019400021E0892B09F420E0822F08950F931F9343
:10195000CF93DF93082F162FD42FC8E06D2F661F6B
:101960006627661F802F0E943F0BDD0F61E0812FED
:101970000E943F0B60E0812F0E943F0BC15071F726
:10198000DF91CF911F910F9108950C94A60C0F93A6
:101990001F93CF93DF93082F162FC3E5D3E08A81DF
:1019A0000E940F0C88810E940F0C402F40686C81B0
:1019B0008B810E94C50C412F40646C818B810E94F9
:1019C000C50C8881DF91CF911F910F910C940C0C65
:1019D000CF93DF9360E080E00E94C70C80915503B5
:1019E0000E940C0C809153030E940F0CCEE7D0E0B4
:1019F00040E060915703809156030E94A60C40E09E
:101A000060915703809156030E94A60C40E06091BC
:101A10005703809156030E94A60C40E06091570343
:101A2000809156030E94A60C219711F780915303D1
:101A30000E940C0C60E080E0DF91CF910C94C70C09
:101A40008F929F92AF92BF92CF92DF92EF92FF92CE
:101A50000F931F93CF93DF93EC01162F8F3F9807BF
:101A600009F044C0C4E5D0E0C41BD109D7FD4AC089
:101A7000C435D1050CF061C0163008F05EC0CE014F
:101A8000840F911D8535910514F044E54C1B612FA1
:101A9000620F7727771F6730710514F026E0211B4E
:101AA000B12CA12CC22ED12CE42EF12CAC14BD04EF
:101AB000A4F5612F6A0D8C2F0E94C70C80915503ED
:101AC0000E940C0C809153030E940F0C912C812CCE
:101AD0008E149F04D4F4402F6091570380915603D5
:101AE0000E94C50C7FEF871A970AF2CF97FFC0CFED
:101AF000C4E5D0E0C41BD109D7FD2196D595C79583
:101B0000D7FFBACFD0E0C0E0B7CF809153030E9497
:101B10000C0C8FEFA81AB80AC9CFC7018C0F9D1FF4
:101B2000DF91CF911F910F91FF90EF90DF90CF90B9
:101B3000BF90AF909F908F90089590E080E0F0CF9D
:101B40002F923F924F925F926F927F928F929F92CD
:101B5000AF92BF92CF92DF92EF92FF920F931F93BB
:101B6000CF93DF9300D000D000D0CDB7DEB77C019B
:101B70005A83498380915A0390915B03892B09F41E
:101B8000DBC1A62EB12CFA01808110E000E0882391
:101B900001F14A0110E000E0F401D1904F01DD2095
:101BA00059F0FFE1FD15C4F761E08D2D0E943B095E
:101BB000080F191F7D2CF0CF61E0872D0E943B0993
:101BC0006C0160E0872D0E943B09C81AD90A0C19E4
:101BD0001D092FEFE216F20629F544E5E42EF12C5B
:101BE000E01AF10AF7FE02C0F12CE12C94E5292E4F
:101BF000312CE981FA818191FA83E983882309F400
:101C00009DC1AB828A30E9F444E54E1900E0209191
:101C10005E036A2DC7010E94200D80915E03A80E0D
:101C2000B11C84C1F7FEDECF34E5E32EF12CE01ABF
:101C3000F10AF7FE03C03FEFE31AF30AF594E794C5
:101C4000D1CFE0915A03F0915B03309709F471C151
:101C500090915F03891708F46CC1209160032817E5
:101C600008F467C124E5E216F1040CF062C13B817F
:101C7000363008F05EC120915C0330915E03239FF3
:101C8000900111242F5F3F4F482F491B550BBA017C
:101C9000269FA001279F500D369F500D11243A0119
:101CA00095E0690E711C4C5F5F4FE40FF51F2491A6
:101CB0002D83022F10E0E0915803F091590309950C
:101CC000882309F47FC0309162033C834D81431720
:101CD00008F084C0832F90E0801B910B9E838D833E
:101CE0006C0197FF03C0EFEFCE1ADE0AD594C794BC
:101CF0002D813E812C193D092F5F3F4F3E832D835F
:101D0000C701800F911F8C0D9D1D2D813E81280FD5
:101D1000391F253531056CF0F101EE19FF09EC1979
:101D2000FD09E01BF10BFE83ED83F7FF02C01E826D
:101D30001D822D813E81820F931F853591054CF0C8
:101D400081010E191F090C191D0917FF02C010E0AF
:101D500000E0C701800F911F8C0D9D1D4D815E819C
:101D6000840F951F853591051CF06101CE18DF08A1
:101D7000512C412C80915E038415150409F00CF45C
:101D8000B5C06B81640D8E2D0E94C70C80915503E8
:101D90000E940C0C809153030E940F0C80916503EC
:101DA000912C812C811153C08C149D04F4F440E0DB
:101DB00060915703809156030E94C50C5FEF851A0E
:101DC000950AF2CF309161033C834D81431708F4AB
:101DD00081CF81E090E09E838D8304C041E050E09C
:101DE0005E834D83D12CC12C8BCF912C812C081577
:101DF0001905D1F080915E03889DA001899D500D49
:101E00001124460D571DE0915A03F0915B03E40F36
:101E1000F51F449160915703809156030E94C50CB1
:101E20008FEF881A980AE3CF912C812CED81FE81E7
:101E30008E169F060CF04FC040E0609157038091D2
:101E400056030E94C50CFFEF8F1A9F0AEFCF8C1428
:101E50009D0464F44091660360915703809156039A
:101E60000E94C50C2FEF821A920AF1CF912C812C7F
:101E700008151905E9F080915E03889DA001899DF0
:101E8000500D1124460D571DE0915A03F0915B034C
:101E9000E40FF51F4491E09166034E2760915703CC
:101EA000809156030E94C50C3FEF831A930AE0CF3E
:101EB000912C812C4D815E818416950664F44091AD
:101EC000660360915703809156030E94C50C5FEF33
:101ED000851A950AEFCF809153030E940C0C8FEF67
:101EE000481A580A9FEF691A790A44CF0C0D1D1D34
:101EF000ED81FE81E00FF11FFE83ED832D813E8198
:101F0000E20EF31E80916303882309F472CE34E558
:101F1000E316F1040CF46DCE80915E03A80EB11CA3
:101F200047E0A416B10414F0B12CA12CF12CE12C43
:101F300060CE1E821D82E2CFF12CE12CC7012696D5
:101F40000FB6F894DEBF0FBECDBFDF91CF911F91CA
:101F50000F91FF90EF90DF90CF90BF90AF909F9048
:101F60008F907F906F905F904F903F902F9008954B
:101F7000FC0101900020E9F73197AF01481B590B94
:101F8000BC0183E492E00C94E0098F929F92AF929F
:101F9000BF920F931F93CF93DF93CDB7DEB7A19777
:101FA0000FB6F894DEBF0FBECDBF19A2423008F4C1
:101FB0004AE08E010F5D1F4F842E912CB12CA12C75
:101FC000A50194010E943A1DE62FB901CA01EA3029
:101FD000F4F4E05DD801EE938D01232B242B252B07
:101FE00079F790E080E0109719F0CD010E94B80FCA
:101FF000A1960FB6F894DEBF0FBECDBFDF91CF9193
:102000001F910F91BF90AF909F908F900895E95CC2
:10201000E1CFCF93DF930E94B80FEC018BE291E008
:102020000E94B80F8C0F9D1FDF91CF910895CF9321
:10203000DF93BC0190E080E04AE00E94C50FEC0114
:102040008BE291E00E94B80F8C0F9D1FDF91CF9122
:1020500008950E94D71F0C94CB1C0C94C31C1F9294
:102060000F920FB60F9211242F933F934F935F93CC
:102070006F937F938F939F93AF93BF93EF93FF9350
:1020800083E492E00E945E0AFF91EF91BF91AF91CD
:102090009F918F917F916F915F914F913F912F9180
:1020A0000F900FBE0F901F9018951F920F920FB6B2
:1020B0000F9211242F938F939F93EF93FF93E091AF
:1020C0005302F09154028081E0915902F0915A023A
:1020D00082FD1BC0908180915C028F5F8F73209185
:1020E0005D02821741F0E0915C02F0E0ED5BFD4F94
:1020F000958F80935C02FF91EF919F918F912F912B
:102100000F900FBE0F901F9018958081F4CF1F92F3
:102110000F920FB60F9211242F933F938F939F939B
:10212000AF93BF938091170290911802A09119026A
:10213000B0911A023091160226E0230F2D3758F580
:102140000296A11DB11D2093160280931702909351
:102150001802A0931902B0931A0280911B02909169
:102160001C02A0911D02B0911E020196A11DB11D7D
:1021700080931B0290931C02A0931D02B0931E0239
:10218000BF91AF919F918F913F912F910F900FBE73
:102190000F901F90189529E8230F0396A11DB11DDC
:1021A000D2CF1F920F920FB60F9211242F933F930D
:1021B0004F935F936F937F938F939F93AF93BF934F
:1021C000EF93FF93E0912302F09124020995FF9190
:1021D000EF91BF91AF919F918F917F916F915F919F
:1021E0004F913F912F910F900FBE0F901F90189518
:1021F0001F920F920FB60F9211242F933F934F937C
:102200005F936F937F938F939F93AF93BF93CF937E
:10221000EF93FF9380913A030E94160BC82F809191
:102220003C030E94160B880F991FC82B80913E0318
:10223000C81709F45DC0E0913E0340913F035091FF
:102240004003609141037091420384E0E802F00191
:1022500011248C2F0C2E000C990BE82BF92BEF5F1F
:10226000FE4F9081892F990F990BAA0BBB0B840FFE
:10227000951FA61FB71F80933F0390934003A09321
:102280004103B0934203C33089F580913F0390919D
:102290004003A0914103B091420322E0B595A79578
:1022A000979587952A95D1F780934303909344039C
:1022B000A0934503B093460380914B0390914C0348
:1022C000A0914D03B0914E0380934F039093500320
:1022D000A0935103B09352030E94000C60934B03F0
:1022E00070934C0380934D0390934E03C0933E0331
:1022F000FF91EF91CF91BF91AF919F918F917F917E
:102300006F915F914F913F912F910F900FBE0F9062
:102310001F901895CF92DF92EF92FF920F931F9329
:10232000CF93DF93E3E4F2E01382128288EE93E02E
:10233000A0E0B0E084839583A683B78385E191E034
:102340009183808385EC90E09587848784EC90E08E
:102350009787868780EC90E0918B808B81EC90E072
:10236000938B828B82EC90E0958B848B86EC90E053
:10237000978B868B118E128E138E148EE3E5F3E00D
:102380008BE083838DE0848388E081838CE080838D
:1023900089E08283CAE3D3E085E090E09983888373
:1023A00086E090E09B838A8362E085E00E946D0B6B
:1023B00062E086E00E946D0B83E08C831D821E82AA
:1023C0001F82188619861A861B861C861D861E8605
:1023D0001F86188AE8E2F3E01282138214821582C3
:1023E0008AE090E097838683108687E291E091836C
:1023F0008083118ACCEED2E084EE92E09F8F8E8FA4
:1024000088EE92E09D8F8C8F80EE92E099A388A356
:102410001AAE1AAA1BAA1CAA1DAA80E090E0AFE778
:10242000B3E48EAB9FABA8AFB9AF84E690E0A0E079
:10243000B0E08EA79FA7A8ABB9AB198E188ECC249D
:10244000C394D12CE12CF12C00E81EE32DEC3CECE4
:102450004CE45DE360E070E080E89FE30E94740874
:102460000E94000C0EA51FA528A939A9601B710B9D
:10247000820B930B6AA37BA38CA39DA3DF91CF91C7
:102480001F910F91FF90EF90DF90CF900895CF9321
:10249000DF93CDB7DEB760970FB6F894DEBF0FBEFF
:1024A000CDBF789484B5826084BD84B5816084BDDD
:1024B00085B5826085BD85B5816085BD80916E00E2
:1024C000816080936E001092810080918100826013
:1024D0008093810080918100816080938100809150
:1024E00080008160809380008091B100846080933F
:1024F000B1008091B00081608093B00080917A003B
:10250000846080937A0080917A00826080937A0060
:1025100080917A008E7F80937A0080917A00806823
:1025200080937A001092C100E0915302F09154021E
:1025300082E08083E0914F02F09150021082E0919E
:102540005102F091520283E3808310925B02E0918A
:102550005702F091580286E08083E0915502F09195
:102560005602808180618083E0915502F09156028D
:10257000808188608083E0915502F09156028081CD
:1025800080688083E0915502F091560280818F7DB2
:1025900080838EE291E00E94091083ED99E0909390
:1025A0005903809358031092630310925B031092B7
:1025B0005A031092640361E0809153030E946D0BF3
:1025C00061E0809155030E946D0B61E0809156039C
:1025D0000E946D0B61E0809157030E946D0B80910A
:1025E00054038F3F69F061E00E946D0B60E08091C1
:1025F00054030E943F0B61E0809154030E943F0B03
:10260000809155030E940F0C809153030E940F0C80
:1026100008EA11E02EEAE22E21E0F22EF8014491C0
:1026200060915703809156030E94A60C0F5F1F4FC5
:10263000E016F10699F7809153030E940C0C0E945A
:10264000E80C62E084E00E946D0B62E082E00E9490
:102650006D0B61E087E00E946D0B84E0809339038D
:102660001092300388E293E00E949C0C882329F0AA
:10267000809130038360809330030E94000C60934C
:102680002A0370932B0380932C0390932D0385E0F2
:1026900090E090932F0380932E0383E080930001BA
:1026A0000E94330C892BE1F380912603811149C0EC
:1026B000E0910A03F0910B03C080D180E280F380A7
:1026C000C0921203D0921303E0921403F092150308
:1026D000E0910803F091090380819181A281B38187
:1026E0008093160390931703A0931803B0931903D4
:1026F0008090220390902303A0902403B0902503A0
:10270000A5019401C701B6010E94371F18164CF4A9
:102710008092120390921303A0921403B0921503B7
:1027200010C080901E0390901F03A0902003B090D3
:102730002103A5019401C701B6010E94D81D87FDA0
:10274000E7CF81E080932603D12CC12C10E0612FCC
:1027500080E00E94C70C809155030E940C0C809170
:1027600053030E940F0CF12CE12CC60182559E4FA1
:102770005C01F501EE0DFF1D4491609157038091BE
:1027800056030E94A60C9FEFE91AF90AA4E5EA167F
:10279000F10479F7809153030E940C0C1F5FB4E59C
:1027A000CB0ED11C163099F6F894809168008460A5
:1027B0008093680080916D00806680936D00109218
:1027C000800080E18093810083E0809321028FB7B5
:1027D00080932202F89482E19AE7909320028093FA
:1027E0001F029093870080938600809122028FBF02
:1027F00080918100887F8093810090918100209159
:102800002102922B9093810082E19CE0909324021C
:102810008093230281E080936F0080918100822B5E
:1028200080938100789464EF71E080E090E00E94F2
:10283000CE0B88E391E00E94091010923E021092A4
:102840003D0290E080E00E942D108F3FA1F469E1ED
:1028500090E080E00E942B1062E380E190E00E9413
:102860002B106BE480E290E00E942B1064E180E387
:1028700090E00E942B1087E491E00E94091090E004
:1028800080E00E942D1015E0819FC00111249093DB
:1028900038028093370283E591E00E94B80F80915F
:1028A0003702909138020E94171080E190E00E9458
:1028B0002D10819FC0011124909336028093350220
:1028C0008DE591E00E94B80F80913502909136021B
:1028D0000E94171080E290E00E942D10819FC0019D
:1028E0001124909334028093330287E691E00E9492
:1028F000B80F80913302909134020E94171080E348
:1029000090E00E942D10819FC0011124909332020B
:102910008093310281E791E00E94B80F80913102EB
:10292000909132020E94171068EE73E080E090E010
:102930000E94CE0B0E94E80C0E94330C809043034F
:1029400090904403A0904503B09046038401809189
:1029500025029091260288169906D1F16401092C6E
:10296000000CEE08FF084AE0C701B601F7FE0DC0F3
:102970006DE283E492E00E94800A66277727CB010C
:102980006C197D098E099F094AE00E94C50F8BE2F0
:1029900091E00E94B80F209125023091260280918B
:1029A0003D02201731070CF0F0C1882309F4E9C17A
:1029B000E1E0E0933C0290922602809225020234EC
:1029C000110531F468EC79E180E090E00E94CE0BD3
:1029D000809130038B7F8093300388E293E00E94E4
:1029E0009C0C182F8091300386958170181709F47C
:1029F000D6C10E94000C60932A0370932B0380932E
:102A00002C0390932D038091300392E089278093CB
:102A100030038091300382FF0AC080FF14C21092FD
:102A20002C0210922B028BE791E00E9409108091FA
:102A30002B0290912C02019761F50E94000C0091ED
:102A40002702109128022091290230912A02601B4E
:102A5000710B820B930B6C3D754081059105C8F09D
:102A60000E94000C60932702709328028093290231
:102A700090932A0280913D028111FAC121E02093B6
:102A80003D028EEA91E00E9409108BEC91E00E94D9
:102A900009102091E8023091E9024091EA02509138
:102AA000EB026091E0027091E1028091E20290916C
:102AB000E3020E946B1D4B015C0120E030E0A901A4
:102AC0000E94371F181624F0B7FAB094B7F8B094E4
:102AD000C0900603D090070320E030E040E251E4CC
:102AE000C501B4010E94D81D87FFCAC1E12CF12C99
:102AF00000E81EE32DEC3CEC4CE45DE360E070E0AC
:102B000080E89FE30E94740880912603882309F4DB
:102B10001CC10E94000C6C837D838E839F838091F7
:102B20000E0390910F03A0911003B09111034C81FB
:102B30005D816E817F81481B590B6A0B7B0B8091F5
:102B40001A0390911B03A0911C03B0911D03481719
:102B500059076A077B0708F4F8C0E0910803F09171
:102B600009034080518062807380E0910C03F091F2
:102B70000D03A301920160817181828193810E9482
:102B80006B1D6B017C01209116033091170340915E
:102B9000180350911903C301B2010E946B1D68878D
:102BA00079878A879B872091FC023091FD024091B2
:102BB000FE025091FF02C701B6010E943C1F209106
:102BC00012033091130340911403509115030E9496
:102BD0006C1D4B015C018092120390921303A09232
:102BE0001403B0921503809127038C8781111CC0B8
:102BF0002091F8023091F9024091FA025091FB02C3
:102C0000688579858A859B850E943C1F9B01AC0164
:102C1000C501B4010E946B1D6093120370931303EE
:102C200080931403909315038091120390911303E2
:102C3000A0911403B09115038D879E87AF87B88B41
:102C40002090220330902303009124031091250348
:102C50009101A801BC01CD010E94371F18160CF08C
:102C60001CC1C101D8018093120390931303A09358
:102C70001403B09315039C85992309F429C120916D
:102C8000F8023091F9024091FA025091FB02C7011B
:102C9000B6010E943C1F6B017C0120910003309122
:102CA00001034091020350910303688579858A8569
:102CB0009B850E943C1F9B01AC01609112037091A7
:102CC000130380911403909115030E946B1DA701BB
:102CD00096010E946C1D6B017C019B01AC01B1014E
:102CE000C8010E94D81D87FD12C020901E0330909D
:102CF0001F0300912003109121039101A801B60147
:102D0000C7010E94D81D87FD02C016018701E0910E
:102D10000A03F0910B03C101D80180839183A28340
:102D2000B383409216035092170360921803709277
:102D300019038C819D81AE81BF8180930E03909396
:102D40000F03A0931003B093110382E00E94160BAF
:102D5000892B09F44FC16091E4027091E5028091E2
:102D6000E6029091E7020E944F1E6B018B0161E029
:102D700087E00E946D0BC114D10409F0ADC060E082
:102D8000AFC0F1E0F093300216CE882321F021E0AD
:102D900020933B0210CE41E040932F020CCE0E94C4
:102DA000000CC0902A03D0902B03E0902C03F090ED
:102DB0002D03AB01BC014C195D096E097F0980919F
:102DC0002E0390912F03B0E0A0E0481759076A073F
:102DD0007B0708F41ECE809130038170181709F428
:102DE00018CE0E94000C60932A0370932B038093EB
:102DF0002C0390932D0380913003A1E08A278460F7
:102E0000809330030E94000C009131031091320333
:102E10002091330330913403601B710B820B930BB1
:102E20006093350370933603809337039093380390
:102E30000E94000C6093310370933203809333033C
:102E400090933403E6CDE1E0F0E0F0932C02E093C0
:102E50002B0285E991E00E9409100E94000C60930A
:102E60002702709328028093290290932A02DFCDD3
:102E700010923D0241E040932E028CEB91E003CE94
:102E8000E12CF12C00E81FE32DEC3CEC4CE45EE37C
:102E900060E070E080E890E435CE80901E03909072
:102EA0001F03A0902003B0902103A50194016D851C
:102EB0007E858F8598890E94D81D87FFDCCE809201
:102EC000120390921303A0921403B0921503D3CE71
:102ED000C12CD12C7601E1CE0F3F110529F461E020
:102EE00087E00E943F0B26C0EDEAF3E08491833037
:102EF00009F466C048F48130C9F0823009F45BC03F
:102F00000038110564F73BCF873009F463C088307F
:102F100009F468C08430A1F78091800080628093BA
:102F20008000D0928B00C0928A0004C084B5806873
:102F300084BDC7BC00913F021091400280914102C4
:102F4000909142028017910731F00E94E80C109393
:102F500042020093410280913E0281111EC182E033
:102F60000E94160B892B09F455C289ED95E00E9449
:102F70009B09F6E0F093620380912D028111E2C17A
:102F80008091390290913A0281309105C1F138F077
:102F90008230910509F4BEC1039709F4C7C14FED12
:102FA00051E060E090E080E00E94A00D6091370267
:102FB000709138022FC084B5806284BDC8BCBACF7E
:102FC00080918000806880938000D0928900C092B8
:102FD0008800B0CF8091B00080688093B000C0922C
:102FE000B300A8CF8091B00080628093B000C092FF
:102FF000B400A0CF61E087E00E946D0BC0CE42EE2E
:1030000051E060E090E080E00E94A00D6091350208
:103010007091360290E080E00E94851E6093E0028D
:103020007093E1028093E2029093E3024BEE51E051
:1030300060E08CE390E00E94A00D6091E00270914E
:10304000E1028091E2029091E3028E010F5F1F4F37
:1030500020E041E00E946E1AA80160E08FEF9FEF30
:103060000E94A00D8AEB93E00E949B0921E120932E
:1030700062036091E8027091E9028091EA02909106
:10308000EB0220E044E00E946E1AC090E802D0906B
:10309000E902E090EA02F090EB0220E030E048EC38
:1030A00052E4C701B6010E94371F87FD53C1A80132
:1030B00061E08DE090E00E94A00D8DE699E00E9415
:1030C0009B094FEE51E062E082E490E00E94A00D87
:1030D00089ED95E00E949B0946E040936203609170
:1030E000E4027091E5028091E6029091E7020E946D
:1030F0004F1E9B01AC01A4E6B0E00E94F81C30E03A
:1031000020E06230AFEF7A078A079A0774F024E66E
:1031100030E06B39B4E67B078105910534F42FEF7D
:1031200030E040E050E00E94D91CE8E2E29FC0019C
:10313000E39F900D112464E670E00E94BD1F6B01B7
:1031400041E0460F0FE721E065E08AE290E00E944F
:10315000200D7601FBE2EF0EF11C88E290E08C1965
:103160009D096C0149F001E421E0482F65E0C701A9
:103170000E94200DEC0CFD1C0FE721E041E065E012
:10318000C7010E94200D42EF51E065E090E080E031
:103190000E94A00DB1E0B0933E020E94000C80910D
:1031A0003D02882309F470C180913C02882329F1F3
:1031B000C090E002D090E102E090E202F090E302E1
:1031C00020E030E048EC53E4C701B6010E94D81D6E
:1031D00018160CF434C120E030E040E85FE3C7018A
:1031E000B6010E946C1D6093E0027093E10280932F
:1031F000E2029093E30210923C0280913B0288230A
:1032000021F1C090E002D090E102E090E202F09063
:10321000E30220E030E040E85FE3C701B6010E942E
:10322000371F87FD19C120E030E040E85FE3C701A8
:10323000B6010E946B1D6093E0027093E1028093DF
:10324000E2029093E30210923B026091E0027091DF
:10325000E1028091E2029091E3020E94561E2091C9
:10326000390230913A022230310509F4FEC0233090
:10327000310509F4FFC02130310509F000C1709318
:1032800036026093350280912E028823B1F181E0ED
:1032900092E00E940910809137029091380265E017
:1032A00070E00E94BD1F90E080E00E942B10809192
:1032B00035029091360265E070E00E94BD1F80E10A
:1032C00090E00E942B10809133029091340265E0CF
:1032D00070E00E94BD1F80E290E00E942B10809160
:1032E00031029091320265E070E00E94BD1F80E3E0
:1032F00090E00E942B1010922E02E0E0F0E0EF2B05
:1033000009F41ACB0E944A0A882309F415CB0E94BB
:10331000000012CB45EE51E060E090E080E00E94BA
:10332000A00D609133027091340274CE48EE51E0EA
:1033300060E090E080E00E94A00D60913102709109
:10334000320268CE4CEE51E060E090E080E00E94F6
:10335000A00D6CCE20E030E048EC52E4C701B6018D
:103360000E94D81D87FD0AC020E030E040E251E411
:10337000C701B6010E94371F87FD21C011E000E0A0
:1033800021E041E0612F90E080E00E94200D21E0EB
:1033900046E2612F81E090E00E94200D21E041E0B3
:1033A000612F87E290E00E94200D1F5F143039F7F3
:1033B000AE014F5F5F4F61E08DE190E07CCE20E099
:1033C00030E040E251E4C701B6010E94D81D87FFFA
:1033D00074CE11E000E021E041E0612F90E080E058
:1033E0000E94200D21E046E3612F81E090E00E94E1
:1033F000200D21E041E0612F87E390E00E94200D45
:103400001F5F143039F7AE014F5F5F4F61E08DE20F
:1034100090E051CE8DE699E00E949B098AE080936E
:10342000620348EF51E062E08EEF9FEF0E94A00D33
:10343000A1E0B0E0B0934002A0933F02ABCE80E0A9
:1034400090E0A8ECB3E48093E0029093E102A093B3
:10345000E202B093E302CFCE1092E0021092E102BA
:103460001092E2021092E302EECE70933402609367
:10347000330209CF709332026093310204CF70930C
:10348000380260933702FFCE80913002882369F0C2
:103490008091390290913A0284309105C8F01092DF
:1034A0003A02109239021092300280912F02882342
:1034B00009F4E9CE8091390290913A02009729F0FF
:1034C000019790933A028093390210922F02DBCE3B
:1034D000019690933A0280933902E5CFEF920F93D1
:1034E0001F93CF93DF93E80134E047FD34E1042ECE
:1034F000000C550B57FF03C0519541955109E32E20
:10350000022F242FAE010E948C1ACE01DF91CF91A1
:103510001F910F91EF900895A9E0B0E0E2E9FAE180
:103520000C94091D6A01F22EB02E102FFBE3AF2E72
:10353000A01608F41BE31F5F012F27E0AE014F5FC9
:103540005F4F0E94EB1BBC018981982F99709130CD
:1035500009F43FC09BE2E1FC04C09E2D9170E0FCA9
:103560003AC05E2D5071E82FE87083FF46C084E0BA
:10357000911101C083E0EF2DE81B8F1508F0E0E00A
:10358000D6018E2F20E2552351F1992329F0D6013F
:103590009C93C60101966C0196012D5F3F4FE2FEA0
:1035A00024C08EE4D6018C9391E411969C931197DC
:1035B00012968C93D9018E2F90E281111BC0E20FDD
:1035C000F32FF11D10828EEF9FEF2996ECE00C9403
:1035D000251D9DE2C6CF90E2C4CF2D93815081116D
:1035E000FCCFCE0ED11CE0E0D0CF8EE6D6018C937E
:1035F00091E6DBCF9D938150E0CF482F447082FF4E
:103600003DC084E0911101C083E08F1510F4EF2DCF
:10361000E81BD6018E2F20E2552309F1992329F0CA
:10362000D6019C93C60101966C0196012D5F3F4F18
:10363000E2FE1BC089E4D6018C938EE411968C9334
:10364000119786E412968C93D9018E2F90E28823ED
:1036500009F4B5CF9D938150FACF2D9381508111FC
:10366000FCCFCE0ED11CE0E0D9CF89E6D6018C93F9
:103670008EE611968C93119786E6E4CF9B0177FF37
:1036800002C030E020E0A1E0B0E0911102C0B0E063
:10369000A0E0F9013196AE0FBF1F8B2C912CBB20FF
:1036A00009F461C05401EFEFAE1ABE0AAA0DBB1DAA
:1036B000FA161B0619F014F04F2D4A1B511188C041
:1036C000E3FC59C07601A42FB0E2A1114FC0C40E93
:1036D000D11C992309F45BC040E0D6011196F60194
:1036E00090836D01552309F448C0012F060F9A817C
:1036F000582F507184FF03C0913309F40150101604
:103700000CF047C0093008F008E0EEE2FE2E5B0145
:10371000A01AB10885019194819491082F3F320736
:1037200029F4D601FC92F60131966F0162177307F6
:1037300094F1021713077CF5DB01A21BB30BAA243B
:10374000A394B12CAC0EBD1EAA0DBB1D11968C917D
:1037500021503109D601119628153905F4F0F601EA
:1037600080836D01DBCFB12CA12CA0CFF701B193E9
:103770007F01A150AACF9111B0CFD601942F50E371
:1037800002C05D9391509111FCCFC40ED11C40E05A
:10379000ACCF01E0BACF80E3DBCF6217730731F41F
:1037A000963388F4953311F4552369F0F60180833C
:1037B000FD01842F90E2811108C0A40FB11D1C925D
:1037C00090E080E002CF81E3F1CF91938150F3CF7D
:1037D000911183CF8ACF283008F027E03327DA0110
:1037E000990F311D87FD916000966105710539F4CF
:1037F00032602E5F3D9330E32A95E1F708959F3FB5
:1038000030F080387105610509F03C5F3C5F3D9305
:10381000913008F08068911DDF93CF931F930F9331
:10382000FF92EF92192F987F9695E92F969596958E
:10383000E90FFF27EE53FF4F99273327EE24FF248C
:10384000A701E70105900894079428F4360FE71EB6
:10385000F81E491F511D660F771F881F991F069478
:10386000A1F70590079428F4E70EF81E491F561F8C
:10387000C11D770F881F991F661F0694A1F7059039
:10388000079428F4F80E491F561FC71FD11D880F33
:10389000991F661F771F0694A1F70590079420F4DF
:1038A000490F561FC71FD81F990F661F771F881F04
:1038B0000694A9F784911095177041F0D695C79595
:1038C00057954795F794E7941A95C1F7E8E6F0E025
:1038D00068941590159135916591959105907FE2C9
:1038E0007395E118F10A430B560BC90BD009C0F7C9
:1038F000E10CF11E431F561FC91FD01D7EF470330B
:1039000011F48A95E6CFE894015030F0080F0AF4DC
:103910000027021708F4202F2395022F7A3328F06E
:1039200079E37D932A95E9F710C07D932A9589F66E
:10393000069497956795379517951794E118F10AAE
:10394000430B560BC90BD00998F023957E917395C4
:103950007A3308F070E37C932013B8F77E9170619E
:103960007D9330F0839571E37D9370E32A95E1F7C1
:103970001124EF90FF900F911F91CF91DF91992724
:1039800087FD90950895F999FECF92BD81BDF89A73
:10399000992780B50895262FF999FECF1FBA92BDB9
:1039A00081BD20BD0FB6F894FA9AF99A0FBE019620
:1039B0000895052E97FB1EF400940E94F01C57FDFD
:1039C00007D00E943A1D07FC03D04EF40C94F01C63
:1039D00050954095309521953F4F4F4F5F4F08953B
:1039E00090958095709561957F4F8F4F9F4F08956B
:1039F0000E945C1DA59F900DB49F900DA49F800D0B
:103A0000911D112408952F923F924F925F926F92D1
:103A10007F928F929F92AF92BF92CF92DF92EF925E
:103A2000FF920F931F93CF93DF93CDB7DEB7CA1BDF
:103A3000DB0B0FB6F894DEBF0FBECDBF09942A880A
:103A4000398848885F846E847D848C849B84AA84B2
:103A5000B984C884DF80EE80FD800C811B81AA813F
:103A6000B981CE0FD11D0FB6F894DEBF0FBECDBF0A
:103A7000ED010895A1E21A2EAA1BBB1BFD010DC08A
:103A8000AA1FBB1FEE1FFF1FA217B307E407F5070E
:103A900020F0A21BB30BE40BF50B661F771F881FEA
:103AA000991F1A9469F760957095809590959B0180
:103AB000AC01BD01CF010895A29FB001B39FC00129
:103AC000A39F700D811D1124911DB29F700D811D4A
:103AD0001124911D08955058BB27AA270E94831DC9
:103AE0000C94FD1E0E94EF1E38F00E94F61E20F07E
:103AF00039F49F3F19F426F40C94EC1E0EF4E09573
:103B0000E7FB0C94E61EE92F0E940E1F58F3BA172C
:103B1000620773078407950720F079F4A6F50C94E3
:103B2000301F0EF4E0950B2EBA2FA02D0B01B9011A
:103B300090010C01CA01A0011124FF27591B99F023
:103B4000593F50F4503E68F11A16F040A22F232F2F
:103B5000342F4427585FF3CF469537952795A7957F
:103B6000F0405395C9F77EF41F16BA0B620B730B26
:103B7000840BBAF09150A1F0FF0FBB1F661F771F97
:103B8000881FC2F70EC0BA0F621F731F841F48F44C
:103B9000879577956795B795F7959E3F08F0B0CFD5
:103BA0009395880F08F09927EE0F979587950895BC
:103BB0000E94C21E08F481E008950E94F11D0C9439
:103BC000FD1E0E94F61E58F00E94EF1E40F029F4E0
:103BD0005F3F29F00C94E61E51110C94311F0C9498
:103BE000EC1E0E940E1F68F39923B1F3552391F345
:103BF000951B550BBB27AA2762177307840738F05C
:103C00009F5F5F4F220F331F441FAA1FA9F335D0B8
:103C10000E2E3AF0E0E832D091505040E695001C6C
:103C2000CAF72BD0FE2F29D0660F771F881FBB1F26
:103C3000261737074807AB07B0E809F0BB0B802D04
:103C4000BF01FF2793585F4F3AF09E3F510578F030
:103C50000C94E61E0C94311F5F3FE4F3983ED4F3BE
:103C6000869577956795B795F7959F5FC9F7880F04
:103C7000911D9695879597F90895E1E0660F771F56
:103C8000881FBB1F621773078407BA0720F0621BE7
:103C9000730B840BBA0BEE1F88F7E09508950E9412
:103CA000561E6894B1110C94311F08950E94161F7E
:103CB00088F09F5798F0B92F9927B751B0F0E1F0ED
:103CC000660F771F881F991F1AF0BA95C9F714C09D
:103CD000B13091F00E94301FB1E008950C94301F74
:103CE000672F782F8827B85F39F0B93FCCF38695D6
:103CF00077956795B395D9F73EF490958095709533
:103D000061957F4F8F4F9F4F0895E89409C097FBAF
:103D10003EF490958095709561957F4F8F4F9F4FA2
:103D20009923A9F0F92F96E9BB279395F6958795E6
:103D300077956795B795F111F8CFFAF4BB0F11F4A9
:103D400060FF1BC06F5F7F4F8F4F9F4F16C0882350
:103D500011F096E911C0772321F09EE8872F762F86
:103D600005C0662371F096E8862F70E060E02AF0C7
:103D70009A95660F771F881FDAF7880F96958795B3
:103D800097F90895990F0008550FAA0BE0E8FEEF88
:103D900016161706E807F907C0F012161306E4070F
:103DA000F50798F0621B730B840B950B39F40A2608
:103DB00061F0232B242B252B21F408950A2609F4E6
:103DC000A140A6958FEF811D811D089597F99F67EA
:103DD00080E870E060E008959FEF80EC0895002493
:103DE0000A941616170618060906089500240A9460
:103DF00012161306140605060895092E0394000CE6
:103E000011F4882352F0BB0F40F4BF2B11F460FF74
:103E100004C06F5F7F4F8F4F9F4F089557FD90589D
:103E2000440F551F59F05F3F71F04795880F97FB7E
:103E3000991F61F09F3F79F0879508951216130638
:103E40001406551FF2CF4695F1DF08C01616170667
:103E50001806991FF1CF869571056105089408959C
:103E6000E894BB2766277727CB0197F908950E942E
:103E7000C21E08F48FEF08950E944F1F0C94FD1E80
:103E80000E94EF1E38F00E94F61E20F0952311F0DC
:103E90000C94E61E0C94EC1E11240C94311F0E940D
:103EA0000E1F70F3959FC1F3950F50E0551F629F51
:103EB000F001729FBB27F00DB11D639FAA27F00D83
:103EC000B11DAA1F649F6627B00DA11D661F829FAA
:103ED0002227B00DA11D621F739FB00DA11D621F8F
:103EE000839FA00D611D221F749F3327A00D611DAC
:103EF000231F849F600D211D822F762F6A2F11248E
:103F00009F5750409AF0F1F088234AF0EE0FFF1FC0
:103F1000BB1F661F771F881F91505040A9F79E3F17
:103F2000510580F00C94E61E0C94311F5F3FE4F3C2
:103F3000983ED4F3869577956795B795F795E7956D
:103F40009F5FC1F7FE2B880F911D9695879597F976
:103F50000895AA1BBB1B51E107C0AA1FBB1FA617D0
:103F6000B70710F0A61BB70B881F991F5A95A9F722
:103F700080959095BC01CD01089597FB072E16F40E
:103F8000009407D077FD09D00E94A91F07FC05D037
:103F90003EF4909581959F4F0895709561957F4F60
:103FA0000895EE0FFF1F0590F491E02D099481E034
:0C3FB00090E0F8940C94DC1FF894FFCF14
:103FBC000100FF0100010000FFFF0000010001FFF4
:103FCC000000000000800AE0090D0ACD0A3E0A1C20
:103FDC000A300A000000009C0C980C0D0A00536576
:103FEC007475702E2E2E2E00536574757020646FB0
:103FFC006E652E2E2E2E0052656164204545505262
:10400C004F4D0061646472657373302000616464A9
:10401C00726573733120006164647265737332204E
:10402C000061646472657373332000427574746F3D
:10403C006E2072656C65617365642028737461749D
:10404C006520302900427574746F6E207072657330
:10405C007365642028737461746520312900507273
:10406C006F6772616D617265204F4E0050726F67A1
:10407C0072616D617265204F4646005265747269BB
:10408C0067676572696E6720627574746F6E004D38
:10409C0031004D32004D33004D34002020200060A3
:1040AC00430050574D202500536C6565702E2E2E05
:0E40BC0000577269746520454550524F4D0003
:00000001FF
