:080000000C9481030C94000034
:100008000C9400000C9400000C9400000C94000068
:100018000C9400000C9400000C9400000C94000058
:100028000C9400000C9400000C9400000C94000048
:100038000C9400000C9400000C94B4060C9400007E
:100048000C9400000C9400000C9400000C94000028
:100058000C9400000C9400000C9400000C94000018
:10006800000000000000005F000000070007001407
:100078007F147F14242A7F2A1223130864623649C6
:100088005522500005030000001C224100004122B7
:100098001C0014083E081408083E080800503000E8
:1000A8000008080808080060600000201008040222
:1000B8003E5149453E00427F400042615149462138
:1000C80041454B311814127F1027454545393C4AA4
:1000D80049493001710905033649494936064949F4
:1000E800291E00363600000056360000081422414A
:1000F80000141414141400412214080201510906B2
:10010800324979413E7E1111117E7F494949363E77
:10011800414141227F4141221C7F494949417F0990
:100128000909013E4149497A7F0808087F00417F53
:1001380041002040413F017F081422417F40404058
:10014800407F020C027F7F0408107F3E4141413E00
:100158007F090909063E4151215E7F091929464652
:100168004949493101017F01013F4040403F1F207B
:1001780040201F3F4038403F63140814630708704D
:1001880008076151494543007F41410002040810B6
:10019800200041417F0004020102044040404040E9
:1001A800000102040020545454787F4844443838ED
:1001B80044444420384444487F3854545418087EF2
:1001C8000901020C5252523E7F0804047800447D13
:1001D80040002040443D007F1028440000417F40FB
:1001E800007C041804787C080404783844444438B3
:1001F8007C14141408081414187C7C080404084897
:1002080054545420043F4440203C4040207C1C204F
:1002180040201C3C4030403C44281028440C50509E
:10022800503C4464544C44000836410000007F00B0
:100238000000413608001008081008784641467842
:100248000609090600000000C0F0F8FCFEFE3F1F8A
:100258001F1F1F3FFEFEFCF8F0C0000000FEFFFF5E
:10026800FFFFFF0100000000000001FFFFFFFFFF8C
:10027800FE00003FFFFFFFFFFFC00000000000007E
:10028800C0FFFFFFFFFF3F00000001070F1F3F3FB8
:100298007E7C7C7C7C7E3F3F1F0F070100000000B6
:1002A800008080C0C0E0F0F8FEFFFFFFFFFF000005
:1002B8000000000000001F1F0F0F07070301FFFFCA
:1002C800FFFFFFFF0000000000000000000000002A
:1002D80000000000FFFFFFFFFFFF0000000000001C
:1002E800000000000000000000007F7F7F7F7F7F0C
:1002F800000000000000000080F0F8FCFEFE7F3FD8
:100308001F1F1F3F7FFEFEFCFCF0E0000000010302
:100318000303030300000080C0E0F8FFFFFFFF3F76
:100328000F000000000080C0E0F8FCFEFF3F3F1F08
:100338000F0703010000000000707C7F7F7F7F7F34
:100348007F7F7E7E7E7E7E7E7E7E7E7E7E0000003D
:10035800C0F0F8FCFEFE7F3F1F1F1F3FFEFEFCFCA7
:10036800F0E00000000000000001010100E0F0F0F2
:10037800F8FCFFFFBF9F0F03000000C0C0E0E0E0F3
:10038800E08000010101010307FFFFFFFFFEF80005
:100398000000030F1F3F3F3F7E7C7C7C7C7E3F3FFD
:1003A8001F1F0F070100000000000000000080E090
:1003B800F0FCFFFFFFFFFFFF0000000000000080CF
:1003C800E0F8FCFFFF3F1F07FFFFFFFFFFFF0000F4
:1003D8000000F8FCFFFFFFFFF7F1F0F0F0F0FFFF7F
:1003E800FFFFFFFFF0F0F0F0010101010101010141
:1003F800010101017F7F7F7F7F7F010101010000F3
:1004080000F8FFFFFFFFFF3F3F3F3F3F3F3F3F3FBA
:100418003F3F000000C0FFFFFFFFFFFF797C7C7CAF
:100428007CFCFCF8F8F0E0C00000C0C0E1E1E1E1CC
:10043800810000000000000081FFFFFFFFFFFE00B9
:1004480000030F1F1F3F3F7E7E7C7C7C7C7E3F3FEE
:100458001F0F070300000000C0F0F8FCFEFE3F1F5E
:100468001F1F1F3FFFFEFEFCF860000000FCFFFF9F
:10047800FFFFFFE0F0F8F8F8F8F8F8F0F0E0C080D7
:100488000000003FFFFFFFFFFF83010000000001A5
:1004980003FFFFFFFFFFFE00000001070F1F3F3FA4
:1004A8007E7C7C7C7C7E7F3F3F1F0F070000003FE7
:1004B8003F3F3F3F3F3F3F3F3F3F3FBFFFFFFFFFC4
:1004C800FF7F3F00000000000000000000C0F0FCBB
:1004D800FEFF7F1F0703000000000000000000006F
:1004E800C0FCFFFFFFFF1F0300000000000000002A
:1004F80000000000007C7F7F7F7F7F0100000000FC
:100508000000000000000000E0F8FCFEFEFF3F1FB6
:100518001F1F1F3FFFFEFEFCF8E000000000070F52
:100528009FBFFFFFF8F0F0F0F0F8FFFFBF9F0F0745
:10053800000000F8FEFFFFFFFF07030101010103B0
:1005480007FFFFFFFFFEF8000001070F1F3F3F7F77
:100558007E7C7C7C7C7E7F3F3F1F0F0701000080F4
:10056800F0F8FCFEFE7F3F1F1F1F1F3FFEFEFCF83A
:10057800F0C00000003FFFFFFFFFFFE0C080808069
:1005880080C0E0FFFFFFFFFFFE00000000818387BF
:10059800878F0F0F0F0F0F0783FFFFFFFFFF1F004E
:1005A8000000030F1F3F3F7F7E7C7C7C7C7E3F3FAB
:1005B8001F0F0701000000000000000000000000FD
:1005C8000000000002FEFEFEFEFEFE02000000002B
:1005D8000000000000000000000000FFFFFFFFFF18
:1005E800FF0000C0C0C0C0C0C00000000000000084
:1005F80000FFFFFFFFFFFF0000030F1F3F3F7F7E4D
:10060800FCFCFCFCFCFCFE7F7F3F3F1F0700FEFE5E
:10061800FEFEFEFE1E1E1E1E1E1E3E7EFEFCF8F088
:10062800C0000000FFFFFFFFFFFFE0E0E0E0E0F0B8
:10063800F0F8FFFF7F3F0F000000FFFFFFFFFFFF05
:10064800070707070707070F1F3FFFFEFCF8E080B3
:10065800FFFFFFFFFFFFF8F8F8F8F8F8F8F8F8FCE4
:10066800FFFF7F3F0F0380E0F0F8FCFEFE7E3E3E7A
:100678003E3E3E3E3E7EFEFEFEFCF8E0FFFFFFFFF4
:10068800FFFF000000000000000000000101010160
:100698000101FFFFFFFFFFFF000000000000000056
:1006A8000000000000000000030F1F3F7FFFFEFC5A
:1006B800F8F8F8F8F8F8F8FCFFFFFF7F3F0F3C7EEA
:1006C800E7C3C3E77E3C1027E80364000A00010083
:1006D800001000011000010001001400F500FF00E7
:1006E80001000D00E00601000803E20601000A030C
:1006F800E40601000C03E6060000F894EE27EFBBC1
:10070800F1E0F5BFE5BF8DE0A2E0BB27ED938A9548
:10071800E9F780E098E0A0E0B1E0ED930197E9F710
:10072800E8EEF6E085919591009761F0A591B59175
:1007380005901590BF01F00105900D920197E1F722
:10074800FB01F0CFE0E0EEBBEFEFEDBFE8E0EEBF7E
:10075800C0E0D3E00C94F1062898AAE0B0E00E942B
:10076800550C289A2998A1E20E94020BA0EC0E943D
:10077800020BA1E10E94020BA3E10E94020BA0E27E
:100788000E94020BACE00E94020B08950E940B0B22
:10079800E9EFF1E03E164F0628F40E94150B0E947F
:1007A800190BF6CF0CC00E940B0BE4E5F0E03E16E7
:1007B8004F0628F40E94150B0E94190BF6CFA4E6E9
:1007C800B0E00E94550C0895E9E00E941E0B0E94BB
:1007D800220B0E94270B28F40E94150B0E94190B6C
:1007E800F8CFE9E00E942C0B0E94220B0E94270BF5
:1007F80028F40E94150B0E94190BF8CFE9E00E941B
:10080800300B0E94220B0E94270B28F40E94150B24
:100818000E94190BF8CFE9E00E94340B0E94220BCA
:100828000E94270B28F40E94150B0E94190BF8CF81
:100838000895E5E00E941E0B332444240E94380BDF
:1008480058F4299AE32DF42DE254FA4FA4910E940A
:10085800020B0E94190BF2CFE5E00E942C0B332407
:1008680044240E94380B58F4299AE32DF42DEC52B5
:10087800FA4FA4910E94020B0E94190BF2CFE5E0F7
:100888000E94300B332444240E94380B58F4299AD0
:10089800E32DF42DE651FA4FA4910E94020B0E9419
:1008A800190BF2CFE5E00E94340B332444240E9454
:1008B800380B58F4299AE32DF42DE050FA4FA491FF
:1008C8000E94020B0E94190BF2CFEFE10E941E0B4F
:1008D800332444240E94380B58F4299AE32DF42D2C
:1008E800EA5EF94FA4910E94020B0E94190BF2CF05
:1008F800EFE10E942C0B332444240E94380B58F457
:10090800299AE32DF42DE45DF94FA4910E94020B7E
:100918000E94190BF2CFEFE10E94300B33244424DC
:100928000E94380B58F4299AE32DF42DEE5BF94F09
:10093800A4910E94020B0E94190BF2CFEFE10E94D2
:10094800340B332444240E94380B58F4299AE32D9D
:10095800F42DE85AF94FA4910E94020B0E94190B3A
:10096800F2CFE9E30E941E0B332444240E94380B83
:1009780058F4299AE32DF42DE259F94FA4910E94D5
:10098800020B0E94190BF2CFE9E30E942C0B3324CF
:1009980044240E94380B58F4299AE32DF42DEC577F
:1009A800F94FA4910E94020B0E94190BF2CFE9E3C0
:1009B8000E94300B332444240E94380B58F4299A9F
:1009C800E32DF42DE656F94FA4910E94020B0E94E4
:1009D800190BF2CFE9E30E94340B332444240E941C
:1009E800380B58F4299AE32DF42DE055F94FA491CA
:1009F8000E94020B0E94190BF2CF0895AA9329981E
:100A0800A0E20E94020BA981A0580E94020BA881B3
:100A1800A05C0E94020B22960895AA930E94160DCC
:100A2800AF81B885E4E6F0E00E94960C8F01AF81B3
:100A3800B885EAE0F0E00E94960CDF01EAE0F0E019
:100A48000E94D30C9F01AF81B885EAE0F0E00E94D4
:100A5800D30CAF01EE810E941E0B332444240E9464
:100A6800380B38F40E943D0B0E94440B0E94190B6E
:100A7800F6CFEE810E942C0B332444240E94380BBD
:100A880040F40E943D0B76960E94440B0E94190B7D
:100A9800F5CFEE810E94300B332444240E94380B9A
:100AA80040F40E943D0BBC960E94440B0E94190B17
:100AB800F5CFEE810E94340B332444240E94380B76
:100AC80038F40E943D0B0E944B0B0E94190BF6CF85
:100AD800EE81EA5E0E941E0B332444240E94380BE8
:100AE80038F40E944E0B0E94440B0E94190BF6CF5B
:100AF800EE81EA5E0E942C0B332444240E94380BBA
:100B080040F40E944E0B76960E94440B0E94190BEB
:100B1800F5CFEE81EA5E0E94300B332444240E9414
:100B2800380B40F40E944E0BBC960E94440B0E9466
:100B3800190BF5CFEE81EA5E0E94340B332444246E
:100B48000E94380B38F40E944E0B0E944B0B0E94F7
:100B5800190BF6CFEE81E45D0E941E0B332444246A
:100B68000E94380B38F40E94550B0E94440B0E94D7
:100B7800190BF6CFEE81E45D0E942C0B332444243C
:100B88000E94380B40F40E94550B76960E94440B45
:100B98000E94190BF5CFEE81E45D0E94300B3324DF
:100BA80044240E94380B40F40E94550BBC960E94C6
:100BB800440B0E94190BF5CFEE81E45D0E94340BC3
:100BC800332444240E94380B38F40E94550B0E94A9
:100BD8004B0B0E94190BF6CF0E941D0D2996089504
:100BE800BA93AA930E94160D20E030E02530E0E089
:100BF8003E07B0F4EE81FF81B097A5E0B0E00E9417
:100C0800910C8F01F901E00FF11FE859FF4F449152
:100C18005527299AA42F0E94020B2F5F3F4FE6CF3A
:100C28000E94150B0E941D0D28960895AA9366240C
:100C3800E5E06E1648F4299AA8810E945C0BA491FD
:100C48000E94020B6394F4CF0C94090BE0E8E09344
:100C58006100E0E0E0936100EFEEE4B9E0E1E5B9BE
:100C6800E0E0E7B9ECE2E8B9E2ECEAB9ECE3EBB9C9
:100C7800E0E0E4BDE3E0E5BDE0E0E6BDE7BDE8BDFA
:100C8800E0938000E0938100E0938500E093840086
:100C9800E0938700E0938600E0938900E093880062
:100CA800E0938B00E0938A00E093B600E093B000F5
:100CB800E093B100E093B200E093B300E093B40096
:100CC800E1E0E0936E00E0E0E0936F00E0937000F5
:100CD800E0936900EDBBE0936800E093C000E8E0B2
:100CE800E093C100E6E0E093C200E0E0E093C500D5
:100CF800E9E1E093C400E0E8E0BFE0E0E0937F00D2
:100D0800E3E0E0937E00E0ECE0937C00E7EAE09328
:100D18007A00E0E0E0937B00E0E5ECBDE0E0EDBDCB
:100D2800E093BC0078940895AA93E881E06CE0937E
:100D38007C0085E38A95F1F7E0917A00E064E0931E
:100D48007A00E0917A00E071E1F3E0917A00E061E5
:100D5800E0937A00E0917800F09179000C94090B07
:100D68000A921A92FA926A937A938A939A93AA9316
:100D7800BA93EA93FA93EFB7EA93F894E394E1E02D
:100D8800EE1549F4A1E0D0DFE0930003F0930103EE
:100D9800E1E0E0930B03E0910803EE1510F4EE2474
:100DA8005F98C394B394A4E0B3E0ED91FD913196BC
:100DB800FE93EE93EAEFEC1508F4CE2E7894E991C1
:100DC800EFBFF991E991B991A99199918991799197
:100DD8006991F99019900990189538DFBDDCD6DC37
:100DE80028DDA8EEB3E00E94550CD0DCE0910E039C
:100DF800E03039F40E94690BA5E0EA9FF0010E94F7
:100E0800700BE0910E03E03041F1ECE00E94750BAD
:100E1800A3E50E94790BA4E70E94800B0E94870B30
:100E2800AFE6B0E0DDDEA2E7B0E0DADEECE30E9498
:100E3800750B0E948B0B0E94900B0E94950B0E94D1
:100E48009F0B0E94950B0E94D60CAE2FEFDEA0E000
:100E58000E94020BA0E8B0E0C3DEE0E00E94A70B0E
:100E6800A3E4B0E0BDDEA2E3B0E0BADEA4E3B0E004
:100E7800B7DEA5E30E94800BE0910E03E03009F491
:100E8800D5D2A0910403B0910503AC3BE2E0BE07C4
:100E980070F00E94AB0BA43FE1E0BE0744F4A091C0
:100EA8000C03A03021F4A0910D03A03009F022C05A
:100EB800E0910F03F0911003FA93EA93A9E0ADDDF6
:100EC800E0E0E0930403E0930503EBE40E941E0BCB
:100ED80033244424E8E0F0E03E164F0658F4299AFB
:100EE800E32DF42DEA53F94FA4910E94020B0E94BE
:100EF800190BF0CF0E94AB0BA53FE1E0BE071CF039
:100F0800E4E6EB1509F013C05FDCE5E10E942C0B69
:100F1800AEE40E94B00B0E94800BA4E50E94B00BC7
:100F28000E94B00BB0E05CDEACE4B0E059DEE091CA
:100F38000B03E03009F42EC1E4E68E1610F0EE2023
:100F480009F403C0E4E68E1A5F9AA0910203B091F7
:100F58000303E9E00E948B0CA0910003B091010308
:100F6800AE0FBF1FEAE0F0E00E94960CE09300038A
:100F7800F0930103E0930203F0930303E09100036D
:100F8800F0910103662777270E94B50BE0912303B0
:100F9800F09124036091250370912603A4E6B0E044
:100FA80080E090E00E946B0CDF01CB01E6E9F0E005
:100FB80060E070E00E94AE0C0E94B50BE091230344
:100FC800F09124037996E0930F03F09310030E94A5
:100FD800AB0B0E94BE0BEA1BFB0BE0931303F093D1
:100FE8001403A0910A03A93649F40E94C30B1B9766
:100FF80014F0EAE001C0E2E0E09308030E94C80BA5
:10100800E0931703F09318030E94CD0BA536E0E098
:10101800BE0734F0E4E6F0E0E0931703F09318031A
:101028000E94CD0BA436E0E0BE075CF40E94C80B1A
:101038000E94D20BEA0FFB1FE0931903F0931A03E7
:1010480002C00E94D70B0E94D20BA536E0E0BE0773
:1010580014F00E94D70BA0911A03AA2312F40E943D
:10106800D70BA0910A03A53F51F4E0911703F09123
:101078001803AAE0B0E00E94910C0E94DD0BA09139
:101088000A03A93641F40E94CD0BE2E0F0E00E9489
:10109800A90C0E94DD0BA0911D03B0911E03A5367B
:1010A800E0E0BE0734F0E4E6F0E0E0931D03F093DF
:1010B8001E030E94C80BE0932103F0932203A09122
:1010C8001503B0911603EA1BFB0BE0931B03F09387
:1010D8001C03E0912103F0912203E0931503F093A0
:1010E80016030E94C30BD39724F4A0911403AA23D8
:1010F8002AF4E0E0E0931B03E0931C03E0911B0358
:10110800F0911C03A4E6B0E00E94910CA0911D038D
:10111800B0911E03EA0FFB1F0E94EA0B0E94C30B4B
:10112800159754F4A0911F03B09120035F9724F002
:10113800EEE1F0E00E94EA0BA0911F03B0912003BA
:10114800A536E0E0BE0724F0E4E6F0E00E94EA0BF2
:10115800A0912003AA232AF4E0E0E0931F03E09380
:10116800200350901F034A9903C05524EFEF01C094
:10117800E0E0E0930C03E03009F05524850CA52D40
:10118800B0E0E4E0F0E00E94A90CE0930903E0E09D
:10119800E0930B03EEE10E94A70BA0E5B0E020DD91
:1011A800A7E5B0E01DDDADE4B0E01ADDEFEFEB152B
:1011B80009F04FC0E1E30E94A70B0E94AB0BA632D7
:1011C800E2E0BE0724F50E94EF0B6624E0910903D4
:1011D8006E1620F40E94EF0B6394F8CF6624E0911A
:1011E8000903F0E0A9E1B0E00E94F20CEA1BFB0B56
:1011F800A62DB0E0AE17BF072CF4299AA2E2FED1C3
:101208006394EDCF0E94EF0BA0E0F8D11CC06624D8
:10121800EBE16E1620F40E94150B6394F9CFE1E31D
:101228000E94A70B0E94F30BAFE6B0E0D9DC0E9446
:10123800870B0E94870B6624E8E06E1620F40E9454
:10124800150B6394F9CFEEE40E94A70BA5E2B0E07A
:10125800C7DCE0910E03E030D1F44E9905C04C9BF9
:1012680003C0E8ECEC1508F005C0E1E0ED1508F462
:10127800DA94CC244D9905C04C9B03C0E8ECEC15DE
:1012880008F005C0E4E0DE1608F4D394CC24E0911D
:101298000E03E03079F14E9905C04C9B03C0E8EC91
:1012A800EC1508F00FC00E94BE0B35970E94700B1A
:1012B800A0911203AA232AF4E0E0E0931103E0933B
:1012C8001203CC244D9905C04C9B03C0E8ECEC15E7
:1012D80008F010C00E94BE0B35960E94700B0E9449
:1012E8008B0BA33CE1E0BE0724F0E2ECF1E00E94A6
:1012F800700BCC244C9907C04D9B05C04E9B03C076
:10130800E8ECEC1508F007C0E0910E03E095E093D7
:101318000E0349DACC244C9905C04D9903C0E8EC7A
:10132800EC1508F006C00E94690BEF5F0E94050DDE
:10133800CC244C9905C04E9903C0E8ECEC1508F094
:1013480006C00E94690BE1500E94050DCC24E09173
:101358000C03E03019F0E4E6EB1509F065C05F987E
:10136800552432DAE9E00E942C0BA3E7B0E038DC20
:10137800ACE60E94790BA5E60E94F70BA9E6B0E05F
:101388002FDCAEE6B0E02CDCA7E60E94FE0B0E9444
:10139800FE0B0E94FE0BB0E023DCE9E00E94300B5C
:1013A800A4E50E94790BADE60E94F70BADE30E941D
:1013B800800B0E94AB0B0E94900B0E94030C709054
:1013C80006030E94AB0B0E94080C0E94030CA0901D
:1013D80006030E94AB0B0E940B0C0E94030C90901A
:1013E80006030E94100C1CF4A72D20DC02C00E94EA
:1013F800F30BA0E003D10E94100C1CF4AA2D16DCFC
:1014080002C00E94F30BA0E0F9D00E94100C1CF45B
:10141800A92D0CDC02C00E94F30BA0E0EFD0A0E2E3
:1014280005DCA3E4B0E0DCDBE1CCFFCF0E94160DC5
:10143800E3E00E94750B0E94150C0E94900B8F012F
:101448000E94150C0E94080C9F010E94150C0E9416
:101458000B0CAF01299AE1E0ED1511F4AFE701C0DB
:10146800A0E0CCD00A930E941E0C11F4AFE701C093
:10147800A0E0C4D02A930E941E0C11F4AFE701C06B
:10148800A0E0BCD04A930E941E0C11F4AFE701C043
:10149800A0E0B4D0E7E10E94750B0E94250C0E94E1
:1014A800900B8F010E94250C0E94080C9F010E943E
:1014B800250C0E940B0CAF01299AE2E0ED1511F4FE
:1014C800AFE701C0A0E09AD00A930E942E0C11F455
:1014D800AFE701C0A0E092D02A930E942E0C11F42D
:1014E800AFE701C0A0E08AD04A930E942E0C11F405
:1014F800AFE701C0A0E082D0EBE20E94750B0E942A
:10150800350C0E94900B8F010E94350C0E94080C2C
:101518009F010E94350C0E940B0CAF01299AE3E051
:10152800ED1511F4AFE701C0A0E068D00A930E945E
:101538003E0C11F4AFE701C0A0E060D02A930E94EE
:101548003E0C11F4AFE701C0A0E058D04A930E94C6
:101558003E0C11F4AFE701C0A0E050D0EFE30E94C9
:10156800750B0E94450C0E94900B8F010E94450C40
:101578000E94080C9F010E94450C0E940B0CAF01B1
:10158800299AE4E0ED1511F4AFE701C0A0E036D0E8
:101598000A930E944E0C11F4AFE701C0A0E02ED0D0
:1015A8002A930E944E0C11F4AFE701C0A0E026D0A8
:1015B8004A930E944E0C11F4AFE701C0A0E01ED080
:1015C8000E941D0D26960895AA936624E5E06E16DE
:1015D80098F4299AE881ED1541F4A9810E945C0BE1
:1015E800E491E095EF77AE2F04C0A9810E945C0BCF
:1015F800A49104D06394EACF22960895AA93E8812F
:10160800EEBDEDB5E7FFFDCFEEB521960895E0E01C
:10161800EA93A0E00E940205E1E0F0E03E2E4F2EA2
:101628000895299AA0E00C94020BE1E0F0E03E0E48
:101638004F1E0895EA93A1E00C940205E1E0F0E062
:101648003E2E4F2E0895EBE4F0E03E164F06089527
:10165800EA93A2E00C940205EA93A3E00C94020535
:10166800EA93A4E00C940205E6E1F0E03E164F068A
:101678000895299AA8E5A09FF001A19FF00D08956B
:10168800E30DF41DE25BFD4FA4910C94020BEE5B9D
:10169800FF4FF6CF299AA8E5A29FF001A39FF00D6E
:1016A8000895299AA8E5A49FF001A59FF00D089533
:1016B800E5E0EA9FF001E05BFF4FDF01E62DF0E097
:1016C800EA0FFB1FE859FF4F0895AD2DB0E0A05079
:1016D800B0400E94F90C0895E0931103F0931203AF
:1016E8000895EA93A0E00C940205B0E00E94F40586
:1016F800A5E6B0E00C94F405B0E00E94F405A0E281
:10170800B0E00C94F405A6E6B0E00C94F405A091C2
:101718001103B09112030895E4E6F0E00E94A90CC9
:101728000895AE2F0E941A06A0E00E94020BEFDF78
:10173800EAE0F0E008950E94A90CDF01EAE0F0E099
:101748000E94D60C0895EA93A5E00C940205A09196
:101758000F03B09110030895B0E00E94F405AFE4C0
:101768000895E0932303F093240360932503709373
:1017780026030895E0911103F09112030895A091B2
:101788001303B09114030895E0911303F091140327
:101798000895A0911703B09118030895A091190313
:1017A800B0911A030895E0E0E0931903E0931A0357
:1017B8000895BF01F3DFE4E1F0E00E94A90CE60F11
:1017C800F71FE0931D03F0931E030895E0931F0392
:1017D800F09320030895299AAEE30C94020BADE22E
:1017E800B0E00C94F405B0E00E94F405A0E7B0E086
:1017F8000C94F405B0E00E94F405AEE20895E0937D
:101808000603F09307030895EAE0F0E094CFEAE0D6
:10181800F0E00E94D60C08959ADFA835E2E0BE07F2
:101828000895A1E0B0E00E94F90CA5E0EA9FF0015C
:10183800DF010895A1E00E94E80A299AE1E0ED1588
:101848000895A2E0B0E00E94F90CA5E0EA9FF0013B
:10185800DF010895A2E00E94E80A299AE2E0ED1566
:101868000895A3E0B0E00E94F90CA5E0EA9FF0011A
:10187800DF010895A3E00E94E80A299AE3E0ED1544
:101888000895A4E0B0E00E94F90CA5E0EA9FF001F9
:10189800DF010895A4E00E94E80A299AE4E0ED1522
:1018A8000895109639F0A89580EA9FE00197F1F71E
:1018B8001197C9F70895F195E195F0400895FA9FB9
:1018C800F02DEB9FF00DEA9FE02DF10D08957A9F22
:1018D800702D6B9F700DF89F700DE99F700D6A9FBA
:1018E800602D710DFB9F600D711DE89F600D711DCE
:1018F8008827FA9FF02D610D781FEB9FF00D611D71
:10190800781FEA9FE02DF10D681F781F08956E2F4C
:101918006A9FF0016B9FF00D089552D0D0DF0EF44E
:10192800CADF08950024112490E1AA0FBB1F001CF0
:10193800111C0E1A1F0A18F40E0E1F1E01C0A160FA
:101948009A9599F7FD01D00108953AD0EBDF0EF48E
:10195800B2DF08953F934F935F93002411244427E7
:10196800552730E2AA0FBB1F881F991F001C111CA6
:10197800441F551F0E1A1F0A460B570B28F40E0E4C
:101988001F1E461F571F01C0A1603A9559F7FD0158
:10199800BC01D001CA015F914F913F910895C2DF08
:1019A800FD010895E894B7FF04C0A095B09511967D
:1019B8006894F7FD80DFB6DFFD010EF47CDF089543
:1019C800E894F7FF02C077DF6894B7FF06C0A095D8
:1019D800B095119600F8039400FA08951B2EBF2FB6
:1019E800F12D1A2EAE2FE12D0895F999FECFFF9310
:1019F800FFB7F894A1BDB2BDF89AE0B5FFBFFF915B
:101A08000895F99B02C0A895FCCF9FB7F894A1BD93
:101A1800B2BDF89A80B5E81719F0E0BDFA9AF99ABC
:101A28009FBF08955A934A933A932A931A930A9315
:101A380008955D814C813B812A811981088108952F
:00000001FF
