:0200000028C016
:1000020063C089C0FCCF9EC0FACFF9CFF8CFF7CF3B
:10001200F6CFF5CFF4CFF3CFF2CFF1CFF0CFEFCFD2
:10002200EECFEDCF00000000000000000000F40160
:1000320002F24460B0210172002015FD0A000400A2
:10004200260002006C0130000C009A013200000010
:10005200F894EE27ECBBF1E0FBBFEBBFE5BFF8E1A4
:10006200F1BDE1BD8DE0A2E0BB27ED938A95E9F7F2
:1000720080E094E0A0E6ED930197E9F7EEE3F0E08B
:1000820085919591009761F0A591B5910590159094
:10009200BF01F00105900D920197E1F7FB01F0CF4E
:1000A200EFE5EDBFE4E0EEBFC0E6D1E0A1C0AA9368
:1000B200E881E7B98BE18A95F1F7369A349BFECF56
:1000C200349AE4B1F5B152C3B8D3F894BBD3D9F49E
:1000D200A0E08199A1E0E0E08299E1E0EA1749F429
:1000E2004424992029F46A94662011F4E1E06E2EEA
:1000F2000AC0E1E04E2E992031F46394E8E0E6155F
:1001020011F4E7E06E2EE1E05E2EA0D3E1E0CE2E08
:10011200A5D3789412C091D3E0916B01EF5FE09385
:100122006B01A0916B01A23041F4C398BB24E0E0C3
:10013200E0936B01E1E08E2EA895E991EFBFE99182
:10014200A99118956A937A93AA93BA93EA93FA9328
:10015200EFB7EA93E1E0AE2EDD2019F0A2E7B1E0BD
:100162008AD370D341F4A6E9B1E0FDD4EF5FFF4F2B
:100172006F4F7F4FFDD4772019F0ACE6B1E07BD30F
:10018200E0916501EF5FE0936501E0916801EF5F47
:10019200E0936801A0916501A43619F4E0E0E093D0
:1001A2006501A0916101AB3008F06BD3A0916101B0
:1001B200A13010F0AB3008F002C063D3AA98E091EE
:1001C2006101E03021F4A0916201A23008F406C07E
:1001D2005ED3E0916201E150E0936201A895E9915A
:1001E200EFBFF991E991B991A99179916991189526
:1001F200BFD252D354D3809902C0DD2009F007C088
:10020200E1E0DE2EE0E0E0937201E0937301809B77
:1002120009C018D339F047D3CDD420F449D310F410
:10022200DD2009F406C0E0E0E0936301DD2416D38B
:100232000DD3809B09C006D339F435D3BBD420F447
:1002420037D310F4DD2009F402C037D3DD24809BBC
:1002520009C029D3AB3FE0E0BE0720F032D310F44F
:10026200DD2009F402C09094DD24809B09C01BD3D9
:10027200A53FE1E0BE0720F029D310F4DD2009F408
:1002820020C0E0916601E03071F4E62DF0E0EC5F11
:10029200FF4FBF0120D3E5E0F0E02BD4DB0179D49E
:1002A200DD2490940EC0A0918801E0918A01EA1B9E
:1002B200F3D26FD4F1D2F3D2E0E0E09366019094EE
:1002C200DD24809B09C0EFD2AF3EE2E0BE0720F002
:1002D20007D310F4DD2009F405C0E62DA1E0B0E05B
:1002E20058D4DD24809B09C0DED2A93EE3E0BE07DC
:1002F20020F0FBD210F4DD2009F411C0DD24A2E0CD
:10030200B0E03BD4E03021F0A2E0B0E0E0E003C096
:10031200A2E0B0E0E1E03DD4BFD2E0E03AD4809B7D
:100322000CC0C1D2A33EE4E0BE0738F0BCD2AC3D63
:10033200E5E0BE0710F4DD2009F406C0E091880173
:10034200A3E0B0E026D4DD24809B07C0ACD2AD3D53
:10035200E5E0BE0710F0DD2009F401C0DD24DD2058
:1003620029F0A1D2AA3FE0E0BE0709F001C0C2D243
:10037200DD2011F0A6D209F001C0BCD2DD2011F0BF
:10038200A5D209F001C0B6D2DD2011F0A9D209F040
:1003920001C0B0D2DD2011F0A8D209F001C0AAD26A
:1003A200882009F4ECC0A0E082DEA6D2AAD215977A
:1003B20028F0A7D2A335E3E0BE0728F0E09176014A
:1003C200F091770199D2A0916401A43650F0E091A6
:1003D2006401E456E093640135D219F4C39AE1E072
:1003E200BE2EA0917601B0917701E9E064D389D263
:1003F200AE0FBF1F8BD26AD37FD28BD2E09376012E
:10040200F093770186D26627772788D2E0918E0112
:10041200F0918F016091900170919101A4E6B0E09A
:1004220080E090E028D3DF01CB01E9E9F0E060E071
:1004320070E064D373D2E0918E01F0918F017796D0
:10044200E0938A01F0938B0172D2E0937801F093EA
:100452007901A0918A01B0918B016ED2EA1BFB0B4C
:10046200E0937A01F0937B016CD270D274D2A93CF2
:10047200E0E0BE071CF0E8ECF0E068D26CD2A436F3
:10048200E0E0BE074CF45DD26BD2EA0FFB1FE093B3
:100492008001F093810101C068D262D2A93CE0E000
:1004A200BE070CF062D2A0918101AA230AF45DD2A8
:1004B200E0917E01F0917F01AAE0B0E002D3BF019A
:1004C2004FD2E4E1F0E015D3E60FF71F54D258D231
:1004D200A536E0E0BE0714F058D24DD232D2E093F6
:1004E2008C01F0938D01A0917C01B0917D0150D2DD
:1004F200EA1BFB0BE0938201F093830149D2E09364
:100502007C01F0937D01A0917A01B0917B01D39798
:1005120024F4A0917B01AA232AF4E0E0E093820173
:10052200E0938301E0918201F091830136D228D2D7
:10053200EA0FFB1F36D2A0918601B0918701A53642
:10054200E0E0BE0714F021D22CD2A0918701AA23A9
:100552002AF4E0E0E0938601E0938701E0918601CE
:10056200E09369019C9903C0E0E0E0936901E091A6
:100572006901A0916401EA0FE0936401882462D1C9
:1005820039F5552029F1442099F0992019F0D4D158
:10059200319601C00BD2E0938801F09389019BD17F
:1005A200A139E1E0BE071CF0E0E9F1E014D20FC08E
:1005B200992019F0C1D1319701C0F8D1E093880197
:1005C200F093890188D11A9714F4A0D104D255244A
:1005D200AA2009F043D0CC2051F0AED1A0917801ED
:1005E200B0917901EA17FB0711F484D1CC24F8D138
:1005F200A13AEBEBBE07EDE08E07E0E09E0770F05C
:10060200A3E0ADD0E0E0E0936701E0939601E093D0
:100612009701E0939801E09399014FD1E1D1A93E6E
:10062200EEE6BE07E3E08E07E0E09E0728F053D136
:10063200A535E1E0BE070CF406C0EAEFF0E0CBD14D
:10064200A2E08DD003D1D5D1AD3DE5E0BE0708F0E3
:100652007724AA2009F002D0CCCDFFCFAA24A09102
:100662006801AD3741F463D1E0936E01F0936F01FD
:10067200E0E0E093680160D1E0937001F0937101D2
:10068200E091A601EF5FE093A601A091A601A3303D
:1006920018F0E0E0E093A601E7E0E2BBE091A601FA
:1006A200F0E03097B9F4AAD1AED1B5D110F4B8D1F7
:1006B200AAD1C8D019F0E0919A01B7D1A99ABB206A
:1006C20011F0C0D009F002C0B3D1B5D1B1D1E8BBAD
:1006D200979A44C0E130A0E0FA07D9F48FD1B0D1A3
:1006E2009AD110F49DD1ACD1ADD019F0E091A40112
:1006F2009CD1AA9B02C0A99801C0A99ABB2011F063
:10070200A1D009F002C094D196D192D1E8BB969AB9
:1007120025C0E230A0E0FA0709F570D19AD17BD169
:1007220010F47ED196D18ED019F0E091A4017DD142
:1007320089D031F4E0916901A0916501AE1708F00A
:1007420002C0A99801C0A99ABB2011F07BD009F080
:1007520002C06ED170D16CD1E8BB959A0895AA936C
:1007620071D021F4E881E093620191D0219608953D
:10077200E0E0E8BBEFEFE7BBE0E1E5BBEEE2E4BBC4
:10078200E0E0E2BBE0EFE1BBEFE0E2BBE0E0E3BFD1
:10079200E2BFEFBDEEBDEDBDECBDE7BDE6BDEBBD1D
:1007A200EABDE9BDE8BDE2BDE5E0E5BDE0E0E4BDEE
:1007B200E3BDE0E4E9BFEBB7E06CEBBFE5E0E5BF2A
:1007C200E0ECEABFE0E0EAB9E0E8E8B9E0E0E0BF87
:1007D200E7B9E7E8E6B9E0E0E0BFEDB9E6BFA4E6D5
:1007E200B0E0ECD1E0E0E0936601EEE1E1BDEEE0E5
:1007F200E1BD809905C0E1E0E093660190947AD072
:100802004BD04DD0A0916001A93C18F0E0E0E093FC
:100812006001C39852D0E1E0CE2EA1E0B0E0ADD1AC
:100822006E2EEFEFE61511F4E1E06E2EBFD0D3D0BD
:10083200E0E0E093640178940895AA93EA93EFB715
:10084200EA930895E0916301E0300895E1E07E2E9D
:10085200E0E0E0936C01E0936D010895E1E0E09344
:100862006701E0E0E0939601E0939701E09398013D
:10087200E09399010895ED91FD913196FE93EE93E7
:100882000895E0916101E150E09361010895E3E28E
:10089200E0936101AA9A0895A0E0B0E008956DD1B5
:1008A200E09360010895A0917201B09173010895DF
:1008B200FADFAD37E0E0BE070895E1E0E0936301BF
:1008C2000895F1DFA43FE1E0BE070895ECDFAE3EFC
:1008D200E2E0BE070895A0918801B09189010895D0
:1008E200E2DFA83EE3E0BE070895DDDFA23EE4E0DA
:1008F200BE070895A1E033CFE0937401F093750130
:100902000895A0917401B09175010895EAE0F0E0B4
:100912000895E0917401F09175010895E0938E01BC
:10092200F0938F0160939001709391010895E0918B
:100932008A01F0918B010895E0918801F09189017B
:100942000895E0917A01F0917B010895E0937E0190
:10095200F0937F010895A0917E01B0917F010895E7
:10096200A0918001B09181010895E0E0E0938001BF
:10097200E09381010895E0938401F0938501089545
:10098200A0918401B09185010895E4E6F0E0089514
:10099200E0918C01F0918D010895A5E0B0E091D035
:1009A2000895E0938601F09387010895A62DB0E0A3
:1009B200AC5FBF4FE2D0FF2766277727E093920113
:1009C200F09393016093940170939501E0919201E9
:1009D200F0919301E2CFE0938801F09389010895A9
:1009E200A0919601B09197018091980190919901FF
:1009F2000895A0916C01B0916D010895A0916E01CE
:100A0200B0916F010895C1DF61D0E656FE4FE081DB
:100A1200E0936A010895EDDFA639E0E0BE0708958C
:100A2200A0917001B09171010895E0936A01089557
:100A3200E0916A010895E860F8DFFADFE8BB089503
:100A420065DF44D0DF0162DF7DD0E656FE4FE081F4
:100A5200ECCF5CDF77D0E656FE4FE081E6CFF19532
:100A6200E195F0400895FA9FF02DEB9FF00DEA9F7B
:100A7200E02DF10D08957A9F702D6B9F700DF89FF8
:100A8200700DE99F700D6A9F602D710DFB9F600DC7
:100A9200711DE89F600D711D8827FA9FF02D610D71
:100AA200781FEB9FF00D611D781FEA9FE02DF10D7D
:100AB200681F781F08956E2F6A9FF0016B9FF00DDB
:100AC200089543D0D0DF0EF4CADF08950024112424
:100AD20090E1AA0FBB1F001C111C0E1A1F0A18F46A
:100AE2000E0E1F1E01C0A1609A9599F7FD01D0015B
:100AF20008952BD0EBDF0EF4B2DF08953F934F93AE
:100B02005F9300241124A00130E2AA0FBB1F881FAB
:100B1200991F001C111C441F551F0E1A1F0A460B59
:100B2200570B28F40E0E1F1E461F571F01C0A1604F
:100B32003A9559F7FD01BC01D001CA015F914F916D
:100B42003F910895C3DFFD010895E894F7FF02C0C5
:100B520086DF6894B7FF06C0B195A195B04000F852
:100B6200039400FA0895ED91FD916D917D910895A0
:100B72007E936E93FE93EE930895E199FECFFF93D9
:100B8200FFB7F894AEBBBFBBE09AEDB3FFBFFF91D6
:100B92000895E19B02C0A895FCCF9FB7F894AEBB25
:100BA200BFBBE09A8DB3E81719F0EDBBE29AE19A68
:100BB2009FBF089500240A160B060895109639F077
:100BC200A89580ED97E00197F1F71197C9F708957D
:00000001FF
